{
  "contractName": "PunkPrintRegistry",
  "abi": [
    {
      "constant": true,
      "inputs": [
        {
          "name": "interfaceId",
          "type": "bytes4"
        }
      ],
      "name": "supportsInterface",
      "outputs": [
        {
          "name": "",
          "type": "bool"
        }
      ],
      "payable": false,
      "stateMutability": "view",
      "type": "function"
    },
    {
      "constant": true,
      "inputs": [],
      "name": "name",
      "outputs": [
        {
          "name": "",
          "type": "string"
        }
      ],
      "payable": false,
      "stateMutability": "view",
      "type": "function"
    },
    {
      "constant": true,
      "inputs": [
        {
          "name": "tokenId",
          "type": "uint256"
        }
      ],
      "name": "getApproved",
      "outputs": [
        {
          "name": "",
          "type": "address"
        }
      ],
      "payable": false,
      "stateMutability": "view",
      "type": "function"
    },
    {
      "constant": false,
      "inputs": [
        {
          "name": "to",
          "type": "address"
        },
        {
          "name": "tokenId",
          "type": "uint256"
        }
      ],
      "name": "approve",
      "outputs": [],
      "payable": false,
      "stateMutability": "nonpayable",
      "type": "function"
    },
    {
      "constant": true,
      "inputs": [
        {
          "name": "",
          "type": "uint256"
        }
      ],
      "name": "tokenIdToSerial",
      "outputs": [
        {
          "name": "",
          "type": "bytes32"
        }
      ],
      "payable": false,
      "stateMutability": "view",
      "type": "function"
    },
    {
      "constant": false,
      "inputs": [
        {
          "name": "account",
          "type": "address"
        }
      ],
      "name": "addWhitelisted",
      "outputs": [],
      "payable": false,
      "stateMutability": "nonpayable",
      "type": "function"
    },
    {
      "constant": true,
      "inputs": [],
      "name": "totalSupply",
      "outputs": [
        {
          "name": "",
          "type": "uint256"
        }
      ],
      "payable": false,
      "stateMutability": "view",
      "type": "function"
    },
    {
      "constant": false,
      "inputs": [
        {
          "name": "from",
          "type": "address"
        },
        {
          "name": "to",
          "type": "address"
        },
        {
          "name": "tokenId",
          "type": "uint256"
        }
      ],
      "name": "transferFrom",
      "outputs": [],
      "payable": false,
      "stateMutability": "nonpayable",
      "type": "function"
    },
    {
      "constant": true,
      "inputs": [
        {
          "name": "",
          "type": "uint256"
        }
      ],
      "name": "staticIpfsImageLink",
      "outputs": [
        {
          "name": "",
          "type": "string"
        }
      ],
      "payable": false,
      "stateMutability": "view",
      "type": "function"
    },
    {
      "constant": false,
      "inputs": [
        {
          "name": "account",
          "type": "address"
        }
      ],
      "name": "removeWhitelisted",
      "outputs": [],
      "payable": false,
      "stateMutability": "nonpayable",
      "type": "function"
    },
    {
      "constant": true,
      "inputs": [],
      "name": "descriptionMiscItem",
      "outputs": [
        {
          "name": "",
          "type": "string"
        }
      ],
      "payable": false,
      "stateMutability": "view",
      "type": "function"
    },
    {
      "constant": true,
      "inputs": [
        {
          "name": "owner",
          "type": "address"
        },
        {
          "name": "index",
          "type": "uint256"
        }
      ],
      "name": "tokenOfOwnerByIndex",
      "outputs": [
        {
          "name": "",
          "type": "uint256"
        }
      ],
      "payable": false,
      "stateMutability": "view",
      "type": "function"
    },
    {
      "constant": true,
      "inputs": [],
      "name": "pricePerPrintIntlShipInWei",
      "outputs": [
        {
          "name": "",
          "type": "uint256"
        }
      ],
      "payable": false,
      "stateMutability": "view",
      "type": "function"
    },
    {
      "constant": true,
      "inputs": [
        {
          "name": "account",
          "type": "address"
        }
      ],
      "name": "isWhitelisted",
      "outputs": [
        {
          "name": "",
          "type": "bool"
        }
      ],
      "payable": false,
      "stateMutability": "view",
      "type": "function"
    },
    {
      "constant": true,
      "inputs": [],
      "name": "tokenBaseIpfsURI",
      "outputs": [
        {
          "name": "",
          "type": "string"
        }
      ],
      "payable": false,
      "stateMutability": "view",
      "type": "function"
    },
    {
      "constant": false,
      "inputs": [
        {
          "name": "from",
          "type": "address"
        },
        {
          "name": "to",
          "type": "address"
        },
        {
          "name": "tokenId",
          "type": "uint256"
        }
      ],
      "name": "safeTransferFrom",
      "outputs": [],
      "payable": false,
      "stateMutability": "nonpayable",
      "type": "function"
    },
    {
      "constant": false,
      "inputs": [],
      "name": "renounceWhitelistAdmin",
      "outputs": [],
      "payable": false,
      "stateMutability": "nonpayable",
      "type": "function"
    },
    {
      "constant": true,
      "inputs": [],
      "name": "tokenBaseURI",
      "outputs": [
        {
          "name": "",
          "type": "string"
        }
      ],
      "payable": false,
      "stateMutability": "view",
      "type": "function"
    },
    {
      "constant": true,
      "inputs": [
        {
          "name": "index",
          "type": "uint256"
        }
      ],
      "name": "tokenByIndex",
      "outputs": [
        {
          "name": "",
          "type": "uint256"
        }
      ],
      "payable": false,
      "stateMutability": "view",
      "type": "function"
    },
    {
      "constant": true,
      "inputs": [
        {
          "name": "tokenId",
          "type": "uint256"
        }
      ],
      "name": "ownerOf",
      "outputs": [
        {
          "name": "",
          "type": "address"
        }
      ],
      "payable": false,
      "stateMutability": "view",
      "type": "function"
    },
    {
      "constant": true,
      "inputs": [
        {
          "name": "owner",
          "type": "address"
        }
      ],
      "name": "balanceOf",
      "outputs": [
        {
          "name": "",
          "type": "uint256"
        }
      ],
      "payable": false,
      "stateMutability": "view",
      "type": "function"
    },
    {
      "constant": false,
      "inputs": [
        {
          "name": "account",
          "type": "address"
        }
      ],
      "name": "addWhitelistAdmin",
      "outputs": [],
      "payable": false,
      "stateMutability": "nonpayable",
      "type": "function"
    },
    {
      "constant": true,
      "inputs": [],
      "name": "symbol",
      "outputs": [
        {
          "name": "",
          "type": "string"
        }
      ],
      "payable": false,
      "stateMutability": "view",
      "type": "function"
    },
    {
      "constant": true,
      "inputs": [],
      "name": "pricePerNFCInWei",
      "outputs": [
        {
          "name": "",
          "type": "uint256"
        }
      ],
      "payable": false,
      "stateMutability": "view",
      "type": "function"
    },
    {
      "constant": true,
      "inputs": [
        {
          "name": "",
          "type": "uint256"
        }
      ],
      "name": "tokenIdToNFC",
      "outputs": [
        {
          "name": "",
          "type": "string"
        }
      ],
      "payable": false,
      "stateMutability": "view",
      "type": "function"
    },
    {
      "constant": false,
      "inputs": [
        {
          "name": "to",
          "type": "address"
        },
        {
          "name": "approved",
          "type": "bool"
        }
      ],
      "name": "setApprovalForAll",
      "outputs": [],
      "payable": false,
      "stateMutability": "nonpayable",
      "type": "function"
    },
    {
      "constant": true,
      "inputs": [],
      "name": "pricePerMiscIntlShipInWei",
      "outputs": [
        {
          "name": "",
          "type": "uint256"
        }
      ],
      "payable": false,
      "stateMutability": "view",
      "type": "function"
    },
    {
      "constant": true,
      "inputs": [],
      "name": "pricePerPrintInWei",
      "outputs": [
        {
          "name": "",
          "type": "uint256"
        }
      ],
      "payable": false,
      "stateMutability": "view",
      "type": "function"
    },
    {
      "constant": false,
      "inputs": [
        {
          "name": "from",
          "type": "address"
        },
        {
          "name": "to",
          "type": "address"
        },
        {
          "name": "tokenId",
          "type": "uint256"
        },
        {
          "name": "_data",
          "type": "bytes"
        }
      ],
      "name": "safeTransferFrom",
      "outputs": [],
      "payable": false,
      "stateMutability": "nonpayable",
      "type": "function"
    },
    {
      "constant": true,
      "inputs": [
        {
          "name": "account",
          "type": "address"
        }
      ],
      "name": "isWhitelistAdmin",
      "outputs": [
        {
          "name": "",
          "type": "bool"
        }
      ],
      "payable": false,
      "stateMutability": "view",
      "type": "function"
    },
    {
      "constant": true,
      "inputs": [],
      "name": "invocations",
      "outputs": [
        {
          "name": "",
          "type": "uint256"
        }
      ],
      "payable": false,
      "stateMutability": "view",
      "type": "function"
    },
    {
      "constant": true,
      "inputs": [
        {
          "name": "",
          "type": "uint256"
        }
      ],
      "name": "tokenIdToPunkId",
      "outputs": [
        {
          "name": "",
          "type": "uint256"
        }
      ],
      "payable": false,
      "stateMutability": "view",
      "type": "function"
    },
    {
      "constant": true,
      "inputs": [],
      "name": "pricePerMiscInWei",
      "outputs": [
        {
          "name": "",
          "type": "uint256"
        }
      ],
      "payable": false,
      "stateMutability": "view",
      "type": "function"
    },
    {
      "constant": false,
      "inputs": [],
      "name": "renounceWhitelisted",
      "outputs": [],
      "payable": false,
      "stateMutability": "nonpayable",
      "type": "function"
    },
    {
      "constant": true,
      "inputs": [
        {
          "name": "owner",
          "type": "address"
        },
        {
          "name": "operator",
          "type": "address"
        }
      ],
      "name": "isApprovedForAll",
      "outputs": [
        {
          "name": "",
          "type": "bool"
        }
      ],
      "payable": false,
      "stateMutability": "view",
      "type": "function"
    },
    {
      "constant": true,
      "inputs": [],
      "name": "pricePerNFCIntlShipInWei",
      "outputs": [
        {
          "name": "",
          "type": "uint256"
        }
      ],
      "payable": false,
      "stateMutability": "view",
      "type": "function"
    },
    {
      "constant": true,
      "inputs": [],
      "name": "printerAddress",
      "outputs": [
        {
          "name": "",
          "type": "address"
        }
      ],
      "payable": false,
      "stateMutability": "view",
      "type": "function"
    },
    {
      "constant": true,
      "inputs": [
        {
          "name": "",
          "type": "bytes32"
        }
      ],
      "name": "serialToTokenId",
      "outputs": [
        {
          "name": "",
          "type": "uint256"
        }
      ],
      "payable": false,
      "stateMutability": "view",
      "type": "function"
    },
    {
      "constant": true,
      "inputs": [
        {
          "name": "",
          "type": "uint256"
        }
      ],
      "name": "tokenIdToContactMethod",
      "outputs": [
        {
          "name": "",
          "type": "string"
        }
      ],
      "payable": false,
      "stateMutability": "view",
      "type": "function"
    },
    {
      "constant": true,
      "inputs": [],
      "name": "punkContract",
      "outputs": [
        {
          "name": "",
          "type": "address"
        }
      ],
      "payable": false,
      "stateMutability": "view",
      "type": "function"
    },
    {
      "inputs": [
        {
          "name": "_printerAddress",
          "type": "address"
        },
        {
          "name": "_pricePerPrintInWei",
          "type": "uint256"
        },
        {
          "name": "_pricePerNFCInWei",
          "type": "uint256"
        },
        {
          "name": "_pricePerMiscInWei",
          "type": "uint256"
        },
        {
          "name": "_pricePerPrintIntlShipInWei",
          "type": "uint256"
        },
        {
          "name": "_pricePerNFCIntlShipInWei",
          "type": "uint256"
        },
        {
          "name": "_pricePerMiscIntlShipInWei",
          "type": "uint256"
        },
        {
          "name": "_tokenBaseURI",
          "type": "string"
        },
        {
          "name": "_tokenName",
          "type": "string"
        },
        {
          "name": "_tokenSymbol",
          "type": "string"
        }
      ],
      "payable": false,
      "stateMutability": "nonpayable",
      "type": "constructor"
    },
    {
      "anonymous": false,
      "inputs": [
        {
          "indexed": true,
          "name": "account",
          "type": "address"
        }
      ],
      "name": "WhitelistedAdded",
      "type": "event"
    },
    {
      "anonymous": false,
      "inputs": [
        {
          "indexed": true,
          "name": "account",
          "type": "address"
        }
      ],
      "name": "WhitelistedRemoved",
      "type": "event"
    },
    {
      "anonymous": false,
      "inputs": [
        {
          "indexed": true,
          "name": "account",
          "type": "address"
        }
      ],
      "name": "WhitelistAdminAdded",
      "type": "event"
    },
    {
      "anonymous": false,
      "inputs": [
        {
          "indexed": true,
          "name": "account",
          "type": "address"
        }
      ],
      "name": "WhitelistAdminRemoved",
      "type": "event"
    },
    {
      "anonymous": false,
      "inputs": [
        {
          "indexed": true,
          "name": "from",
          "type": "address"
        },
        {
          "indexed": true,
          "name": "to",
          "type": "address"
        },
        {
          "indexed": true,
          "name": "tokenId",
          "type": "uint256"
        }
      ],
      "name": "Transfer",
      "type": "event"
    },
    {
      "anonymous": false,
      "inputs": [
        {
          "indexed": true,
          "name": "owner",
          "type": "address"
        },
        {
          "indexed": true,
          "name": "approved",
          "type": "address"
        },
        {
          "indexed": true,
          "name": "tokenId",
          "type": "uint256"
        }
      ],
      "name": "Approval",
      "type": "event"
    },
    {
      "anonymous": false,
      "inputs": [
        {
          "indexed": true,
          "name": "owner",
          "type": "address"
        },
        {
          "indexed": true,
          "name": "operator",
          "type": "address"
        },
        {
          "indexed": false,
          "name": "approved",
          "type": "bool"
        }
      ],
      "name": "ApprovalForAll",
      "type": "event"
    },
    {
      "constant": false,
      "inputs": [
        {
          "name": "_punkId",
          "type": "uint256"
        },
        {
          "name": "_contactMethod",
          "type": "string"
        }
      ],
      "name": "purchasePrint",
      "outputs": [
        {
          "name": "_tokenId",
          "type": "uint256"
        }
      ],
      "payable": true,
      "stateMutability": "payable",
      "type": "function"
    },
    {
      "constant": false,
      "inputs": [
        {
          "name": "_punkId",
          "type": "uint256"
        },
        {
          "name": "_contactMethod",
          "type": "string"
        }
      ],
      "name": "purchaseNFCOnly",
      "outputs": [
        {
          "name": "_tokenId",
          "type": "uint256"
        }
      ],
      "payable": true,
      "stateMutability": "payable",
      "type": "function"
    },
    {
      "constant": false,
      "inputs": [
        {
          "name": "_punkId",
          "type": "uint256"
        },
        {
          "name": "_contactMethod",
          "type": "string"
        }
      ],
      "name": "purchaseMisc",
      "outputs": [
        {
          "name": "_tokenId",
          "type": "uint256"
        }
      ],
      "payable": true,
      "stateMutability": "payable",
      "type": "function"
    },
    {
      "constant": false,
      "inputs": [
        {
          "name": "_punkId",
          "type": "uint256"
        },
        {
          "name": "_nfc",
          "type": "string"
        }
      ],
      "name": "mint",
      "outputs": [
        {
          "name": "_tokenId",
          "type": "uint256"
        }
      ],
      "payable": false,
      "stateMutability": "nonpayable",
      "type": "function"
    },
    {
      "constant": false,
      "inputs": [
        {
          "name": "_printerAddress",
          "type": "address"
        }
      ],
      "name": "updatePrinterAddress",
      "outputs": [
        {
          "name": "",
          "type": "bool"
        }
      ],
      "payable": false,
      "stateMutability": "nonpayable",
      "type": "function"
    },
    {
      "constant": false,
      "inputs": [
        {
          "name": "_pricePerPrintInWei",
          "type": "uint256"
        }
      ],
      "name": "updatePricePerPrintInWei",
      "outputs": [
        {
          "name": "",
          "type": "bool"
        }
      ],
      "payable": false,
      "stateMutability": "nonpayable",
      "type": "function"
    },
    {
      "constant": false,
      "inputs": [
        {
          "name": "_pricePerNFCInWei",
          "type": "uint256"
        }
      ],
      "name": "updatePricePerNFCInWei",
      "outputs": [
        {
          "name": "",
          "type": "bool"
        }
      ],
      "payable": false,
      "stateMutability": "nonpayable",
      "type": "function"
    },
    {
      "constant": false,
      "inputs": [
        {
          "name": "_pricePerMiscInWei",
          "type": "uint256"
        }
      ],
      "name": "updatePricePerMiscInWei",
      "outputs": [
        {
          "name": "",
          "type": "bool"
        }
      ],
      "payable": false,
      "stateMutability": "nonpayable",
      "type": "function"
    },
    {
      "constant": false,
      "inputs": [
        {
          "name": "_pricePerPrintIntlShipInWei",
          "type": "uint256"
        }
      ],
      "name": "updatePricePerPrintIntlShipInWei",
      "outputs": [
        {
          "name": "",
          "type": "bool"
        }
      ],
      "payable": false,
      "stateMutability": "nonpayable",
      "type": "function"
    },
    {
      "constant": false,
      "inputs": [
        {
          "name": "_pricePerNFCIntlShipInWei",
          "type": "uint256"
        }
      ],
      "name": "updatePricePerNFCIntlShipInWei",
      "outputs": [
        {
          "name": "",
          "type": "bool"
        }
      ],
      "payable": false,
      "stateMutability": "nonpayable",
      "type": "function"
    },
    {
      "constant": false,
      "inputs": [
        {
          "name": "_pricePerMiscIntlShipInWei",
          "type": "uint256"
        }
      ],
      "name": "updatePricePerMiscIntlShipInWei",
      "outputs": [
        {
          "name": "",
          "type": "bool"
        }
      ],
      "payable": false,
      "stateMutability": "nonpayable",
      "type": "function"
    },
    {
      "constant": false,
      "inputs": [
        {
          "name": "_descriptionMiscItem",
          "type": "string"
        }
      ],
      "name": "updateDescriptionMiscItem",
      "outputs": [
        {
          "name": "",
          "type": "bool"
        }
      ],
      "payable": false,
      "stateMutability": "nonpayable",
      "type": "function"
    },
    {
      "constant": false,
      "inputs": [
        {
          "name": "_newBaseURI",
          "type": "string"
        }
      ],
      "name": "updateTokenBaseURI",
      "outputs": [
        {
          "name": "",
          "type": "bool"
        }
      ],
      "payable": false,
      "stateMutability": "nonpayable",
      "type": "function"
    },
    {
      "constant": false,
      "inputs": [
        {
          "name": "_tokenBaseIpfsURI",
          "type": "string"
        }
      ],
      "name": "updateTokenBaseIpfsURI",
      "outputs": [
        {
          "name": "",
          "type": "bool"
        }
      ],
      "payable": false,
      "stateMutability": "nonpayable",
      "type": "function"
    },
    {
      "constant": false,
      "inputs": [
        {
          "name": "_tokenId",
          "type": "uint256"
        },
        {
          "name": "_ipfsHash",
          "type": "string"
        }
      ],
      "name": "overrideDynamicImageWithIpfsLink",
      "outputs": [
        {
          "name": "",
          "type": "bool"
        }
      ],
      "payable": false,
      "stateMutability": "nonpayable",
      "type": "function"
    },
    {
      "constant": false,
      "inputs": [
        {
          "name": "_tokenId",
          "type": "uint256"
        }
      ],
      "name": "clearIpfsImageUri",
      "outputs": [
        {
          "name": "",
          "type": "bool"
        }
      ],
      "payable": false,
      "stateMutability": "nonpayable",
      "type": "function"
    },
    {
      "constant": false,
      "inputs": [
        {
          "name": "_tokenId",
          "type": "uint256"
        },
        {
          "name": "_punkId",
          "type": "uint256"
        }
      ],
      "name": "updateTokenPunkId",
      "outputs": [
        {
          "name": "",
          "type": "bool"
        }
      ],
      "payable": false,
      "stateMutability": "nonpayable",
      "type": "function"
    },
    {
      "constant": false,
      "inputs": [
        {
          "name": "_tokenId",
          "type": "uint256"
        },
        {
          "name": "_contactMethod",
          "type": "string"
        }
      ],
      "name": "updateTokenContactMethod",
      "outputs": [
        {
          "name": "",
          "type": "bool"
        }
      ],
      "payable": false,
      "stateMutability": "nonpayable",
      "type": "function"
    },
    {
      "constant": false,
      "inputs": [
        {
          "name": "_tokenId",
          "type": "uint256"
        },
        {
          "name": "_NFCUID",
          "type": "string"
        }
      ],
      "name": "updateTokenNFC",
      "outputs": [
        {
          "name": "",
          "type": "bool"
        }
      ],
      "payable": false,
      "stateMutability": "nonpayable",
      "type": "function"
    },
    {
      "constant": true,
      "inputs": [
        {
          "name": "owner",
          "type": "address"
        }
      ],
      "name": "tokensOfOwner",
      "outputs": [
        {
          "name": "",
          "type": "uint256[]"
        }
      ],
      "payable": false,
      "stateMutability": "view",
      "type": "function"
    },
    {
      "constant": true,
      "inputs": [
        {
          "name": "_tokenId",
          "type": "uint256"
        }
      ],
      "name": "tokenURI",
      "outputs": [
        {
          "name": "",
          "type": "string"
        }
      ],
      "payable": false,
      "stateMutability": "view",
      "type": "function"
    }
  ],
  "bytecode": "0x60c0604052601c60808190527f68747470733a2f2f697066732e696e667572612e696f2f697066732f0000000060a09081526200004091600f919062000725565b5060006018553480156200005357600080fd5b5060405162004c0e38038062004c0e83398101806040526101408110156200007a57600080fd5b8151602083015160408401516060850151608086015160a087015160c088015160e08901805197999698959794969395929491939283019291640100000000811115620000c657600080fd5b82016020810184811115620000da57600080fd5b8151640100000000811182820187101715620000f557600080fd5b505092919060200180516401000000008111156200011257600080fd5b820160208101848111156200012657600080fd5b81516401000000008111828201871017156200014157600080fd5b505092919060200180516401000000008111156200015e57600080fd5b820160208101848111156200017257600080fd5b81516401000000008111828201871017156200018d57600080fd5b50909350849250839150620001cd90507f01ffc9a70000000000000000000000000000000000000000000000000000000064010000000062000369810204565b620002017f80ac58cd0000000000000000000000000000000000000000000000000000000064010000000062000369810204565b620002357f780e9d630000000000000000000000000000000000000000000000000000000064010000000062000369810204565b81516200024a90600990602085019062000725565b5080516200026090600a90602084019062000725565b50620002957f5b5e139f0000000000000000000000000000000000000000000000000000000064010000000062000369810204565b5050620002b13362000438640100000000026401000000009004565b620002ca33640100000000620016876200048a82021704565b620002e38a640100000000620016876200048a82021704565b60108054600160a060020a031916600160a060020a038c1617905560118990556012889055601387905560148690556015859055601684905582516200033190600e90602086019062000725565b5050600d8054600160a060020a03191673b47e3cd837ddf8e4c57f05d70ab865de6e193bbb17905550620007ca975050505050505050565b7fffffffff000000000000000000000000000000000000000000000000000000008082161415620003fb57604080517f08c379a000000000000000000000000000000000000000000000000000000000815260206004820152601c60248201527f4552433136353a20696e76616c696420696e7465726661636520696400000000604482015290519081900360640190fd5b7fffffffff00000000000000000000000000000000000000000000000000000000166000908152602081905260409020805460ff19166001179055565b62000453600b82640100000000620038636200054982021704565b604051600160a060020a038216907f22380c05984257a1cb900161c713dd71d39e74820f1aea43bd3f1bdd2096129990600090a250565b6200049e33640100000000620005f0810204565b15156200053257604080517f08c379a000000000000000000000000000000000000000000000000000000000815260206004820152602481018290527f57686974656c69737441646d696e526f6c653a2063616c6c657220646f65732060448201527f6e6f742068617665207468652057686974656c69737441646d696e20726f6c65606482015290519081900360840190fd5b620005468164010000000062000613810204565b50565b6200055e828264010000000062000665810204565b15620005cb57604080517f08c379a000000000000000000000000000000000000000000000000000000000815260206004820152601f60248201527f526f6c65733a206163636f756e7420616c72656164792068617320726f6c6500604482015290519081900360640190fd5b600160a060020a0316600090815260209190915260409020805460ff19166001179055565b60006200060d600b83640100000000620033ea6200066582021704565b92915050565b6200062e600c82640100000000620038636200054982021704565b604051600160a060020a038216907fee1504a83b6d4a361f4c1dc78ab59bfa30d6a3b6612c403e86bb01ef2984295f90600090a250565b6000600160a060020a03821615156200070557604080517f08c379a000000000000000000000000000000000000000000000000000000000815260206004820152602260248201527f526f6c65733a206163636f756e7420697320746865207a65726f20616464726560448201527f7373000000000000000000000000000000000000000000000000000000000000606482015290519081900360840190fd5b50600160a060020a03166000908152602091909152604090205460ff1690565b828054600181600116156101000203166002900490600052602060002090601f016020900481019282601f106200076857805160ff191683800117855562000798565b8280016001018555821562000798579182015b82811115620007985782518255916020019190600101906200077b565b50620007a6929150620007aa565b5090565b620007c791905b80821115620007a65760008155600101620007b1565b90565b61443480620007da6000396000f3fe6080604052600436106102d45763ffffffff7c010000000000000000000000000000000000000000000000000000000060003504166301ffc9a781146102d957806306fdde0314610336578063081812fc146103c0578063095ea7b3146104065780630cc136011461044157806310154bad1461047d57806318160ddd146104b05780632295ee5b146104c557806323b872dd14610578578063261eb4e5146105bb578063291d9549146105e55780632967316f146106185780632f745c591461062d578063346f151d1461066657806337e8fa251461067b5780633af32abf1461072e5780633e10169f14610761578063427849d61461077657806342842e0e1461083057806342b6142a1461087357806343152b1f1461092d5780634c5a628c146109da5780634e99b800146109ef5780634f6ccce714610a045780636352211e14610a2e57806370a0823114610a5857806370f8545014610a8b5780637362d9c814610abb57806377097fc814610aee5780638462151c14610ba8578063893bc90414610c2b57806395d89b4114610cde5780639c3612cf14610cf35780639dcce5d114610d08578063a22cb46514610d32578063a592be5014610d6d578063aebed6ee14610d82578063b88d4fde14610d97578063bb5f747b14610e6a578063bdaaf5fa14610e9d578063bf40527414610eb2578063c6225ae214610edc578063c728c8c414610f06578063c87b56dd14610fb3578063d03f548f14610fdd578063d08399d114611007578063d3532f1d1461101c578063d39e546c14611046578063d6cd947314611079578063d84cd48a1461108e578063da25120a1461113b578063e985e9c514611165578063ecf89aab146111a0578063ed10fbc61461125a578063f074349114611284578063f1aafae114611299578063f27f25d1146112c3578063f39c08b6146112d8578063f465d6f514611302578063f97e48ee1461132c578063fce7653b14611341575b600080fd5b3480156102e557600080fd5b50610322600480360360208110156102fc57600080fd5b50357bffffffffffffffffffffffffffffffffffffffffffffffffffffffff191661136b565b604080519115158252519081900360200190f35b34801561034257600080fd5b5061034b6113a3565b6040805160208082528351818301528351919283929083019185019080838360005b8381101561038557818101518382015260200161036d565b50505050905090810190601f1680156103b25780820380516001836020036101000a031916815260200191505b509250505060405180910390f35b3480156103cc57600080fd5b506103ea600480360360208110156103e357600080fd5b503561143a565b60408051600160a060020a039092168252519081900360200190f35b34801561041257600080fd5b5061043f6004803603604081101561042957600080fd5b50600160a060020a0381351690602001356114dd565b005b34801561044d57600080fd5b5061046b6004803603602081101561046457600080fd5b5035611675565b60408051918252519081900360200190f35b34801561048957600080fd5b5061043f600480360360208110156104a057600080fd5b5035600160a060020a0316611687565b3480156104bc57600080fd5b5061046b611718565b3480156104d157600080fd5b50610322600480360360208110156104e857600080fd5b81019060208101813564010000000081111561050357600080fd5b82018360208201111561051557600080fd5b8035906020019184600183028401116401000000008311171561053757600080fd5b91908080601f01602080910402602001604051908101604052809392919081815260200183838082843760009201919091525092955061171e945050505050565b34801561058457600080fd5b5061043f6004803603606081101561059b57600080fd5b50600160a060020a0381358116916020810135909116906040013561179d565b3480156105c757600080fd5b5061034b600480360360208110156105de57600080fd5b5035611833565b3480156105f157600080fd5b5061043f6004803603602081101561060857600080fd5b5035600160a060020a03166118ce565b34801561062457600080fd5b5061034b61195c565b34801561063957600080fd5b5061046b6004803603604081101561065057600080fd5b50600160a060020a0381351690602001356119b7565b34801561067257600080fd5b5061046b611a75565b34801561068757600080fd5b506103226004803603602081101561069e57600080fd5b8101906020810181356401000000008111156106b957600080fd5b8201836020820111156106cb57600080fd5b803590602001918460018302840111640100000000831117156106ed57600080fd5b91908080601f016020809104026020016040519081016040528093929190818152602001838380828437600092019190915250929550611a7b945050505050565b34801561073a57600080fd5b506103226004803603602081101561075157600080fd5b5035600160a060020a0316611af1565b34801561076d57600080fd5b5061034b611b0a565b34801561078257600080fd5b506103226004803603604081101561079957600080fd5b813591908101906040810160208201356401000000008111156107bb57600080fd5b8201836020820111156107cd57600080fd5b803590602001918460018302840111640100000000831117156107ef57600080fd5b91908080601f016020809104026020016040519081016040528093929190818152602001838380828437600092019190915250929550611b65945050505050565b34801561083c57600080fd5b5061043f6004803603606081101561085357600080fd5b50600160a060020a03813581169160208101359091169060400135611bf1565b34801561087f57600080fd5b506103226004803603604081101561089657600080fd5b813591908101906040810160208201356401000000008111156108b857600080fd5b8201836020820111156108ca57600080fd5b803590602001918460018302840111640100000000831117156108ec57600080fd5b91908080601f016020809104026020016040519081016040528093929190818152602001838380828437600092019190915250929550611c0d945050505050565b61046b6004803603604081101561094357600080fd5b8135919081019060408101602082013564010000000081111561096557600080fd5b82018360208201111561097757600080fd5b8035906020019184600183028401116401000000008311171561099957600080fd5b91908080601f016020809104026020016040519081016040528093929190818152602001838380828437600092019190915250929550611d0f945050505050565b3480156109e657600080fd5b5061043f612042565b3480156109fb57600080fd5b5061034b61204d565b348015610a1057600080fd5b5061046b60048036036020811015610a2757600080fd5b50356120a8565b348015610a3a57600080fd5b506103ea60048036036020811015610a5157600080fd5b503561214e565b348015610a6457600080fd5b5061046b60048036036020811015610a7b57600080fd5b5035600160a060020a03166121e3565b348015610a9757600080fd5b5061032260048036036040811015610aae57600080fd5b508035906020013561228c565b348015610ac757600080fd5b5061043f60048036036020811015610ade57600080fd5b5035600160a060020a0316612364565b348015610afa57600080fd5b5061046b60048036036040811015610b1157600080fd5b81359190810190604081016020820135640100000000811115610b3357600080fd5b820183602082011115610b4557600080fd5b80359060200191846001830284011164010000000083111715610b6757600080fd5b91908080601f0160208091040260200160405190810160405280939291908181526020018383808284376000920191909152509295506123f2945050505050565b348015610bb457600080fd5b50610bdb60048036036020811015610bcb57600080fd5b5035600160a060020a0316612528565b60408051602080825283518183015283519192839290830191858101910280838360005b83811015610c17578181015183820152602001610bff565b505050509050019250505060405180910390f35b348015610c3757600080fd5b5061032260048036036020811015610c4e57600080fd5b810190602081018135640100000000811115610c6957600080fd5b820183602082011115610c7b57600080fd5b80359060200191846001830284011164010000000083111715610c9d57600080fd5b91908080601f016020809104026020016040519081016040528093929190818152602001838380828437600092019190915250929550612589945050505050565b348015610cea57600080fd5b5061034b6125ff565b348015610cff57600080fd5b5061046b612660565b348015610d1457600080fd5b5061034b60048036036020811015610d2b57600080fd5b5035612666565b348015610d3e57600080fd5b5061043f60048036036040811015610d5557600080fd5b50600160a060020a03813516906020013515156126ce565b348015610d7957600080fd5b5061046b61279d565b348015610d8e57600080fd5b5061046b6127a3565b348015610da357600080fd5b5061043f60048036036080811015610dba57600080fd5b600160a060020a03823581169260208101359091169160408201359190810190608081016060820135640100000000811115610df557600080fd5b820183602082011115610e0757600080fd5b80359060200191846001830284011164010000000083111715610e2957600080fd5b91908080601f0160208091040260200160405190810160405280939291908181526020018383808284376000920191909152509295506127a9945050505050565b348015610e7657600080fd5b5061032260048036036020811015610e8d57600080fd5b5035600160a060020a0316612842565b348015610ea957600080fd5b5061046b612855565b348015610ebe57600080fd5b5061032260048036036020811015610ed557600080fd5b503561285b565b348015610ee857600080fd5b5061046b60048036036020811015610eff57600080fd5b50356128dd565b61046b60048036036040811015610f1c57600080fd5b81359190810190604081016020820135640100000000811115610f3e57600080fd5b820183602082011115610f5057600080fd5b80359060200191846001830284011164010000000083111715610f7257600080fd5b91908080601f0160208091040260200160405190810160405280939291908181526020018383808284376000920191909152509295506128ef945050505050565b348015610fbf57600080fd5b5061034b60048036036020811015610fd657600080fd5b5035612aa5565b348015610fe957600080fd5b506103226004803603602081101561100057600080fd5b5035612d0d565b34801561101357600080fd5b5061046b612d79565b34801561102857600080fd5b506103226004803603602081101561103f57600080fd5b5035612d7f565b34801561105257600080fd5b506103226004803603602081101561106957600080fd5b5035600160a060020a0316612deb565b34801561108557600080fd5b5061043f612e80565b61046b600480360360408110156110a457600080fd5b813591908101906040810160208201356401000000008111156110c657600080fd5b8201836020820111156110d857600080fd5b803590602001918460018302840111640100000000831117156110fa57600080fd5b91908080601f016020809104026020016040519081016040528093929190818152602001838380828437600092019190915250929550612e89945050505050565b34801561114757600080fd5b506103226004803603602081101561115e57600080fd5b5035612edc565b34801561117157600080fd5b506103226004803603604081101561118857600080fd5b50600160a060020a0381358116916020013516612f48565b3480156111ac57600080fd5b50610322600480360360408110156111c357600080fd5b813591908101906040810160208201356401000000008111156111e557600080fd5b8201836020820111156111f757600080fd5b8035906020019184600183028401116401000000008311171561121957600080fd5b91908080601f016020809104026020016040519081016040528093929190818152602001838380828437600092019190915250929550612f76945050505050565b34801561126657600080fd5b506103226004803603602081101561127d57600080fd5b5035613057565b34801561129057600080fd5b5061046b6130c3565b3480156112a557600080fd5b50610322600480360360208110156112bc57600080fd5b50356130c9565b3480156112cf57600080fd5b506103ea613135565b3480156112e457600080fd5b5061046b600480360360208110156112fb57600080fd5b5035613144565b34801561130e57600080fd5b5061034b6004803603602081101561132557600080fd5b5035613156565b34801561133857600080fd5b506103ea6131be565b34801561134d57600080fd5b506103226004803603602081101561136457600080fd5b50356131cd565b7bffffffffffffffffffffffffffffffffffffffffffffffffffffffff19811660009081526020819052604090205460ff165b919050565b60098054604080516020601f600260001961010060018816150201909516949094049384018190048102820181019092528281526060939092909183018282801561142f5780601f106114045761010080835404028352916020019161142f565b820191906000526020600020905b81548152906001019060200180831161141257829003601f168201915b505050505090505b90565b600061144582613239565b15156114c1576040805160e560020a62461bcd02815260206004820152602c60248201527f4552433732313a20617070726f76656420717565727920666f72206e6f6e657860448201527f697374656e7420746f6b656e0000000000000000000000000000000000000000606482015290519081900360840190fd5b50600090815260026020526040902054600160a060020a031690565b60006114e88261214e565b9050600160a060020a038381169082161415611574576040805160e560020a62461bcd02815260206004820152602160248201527f4552433732313a20617070726f76616c20746f2063757272656e74206f776e6560448201527f7200000000000000000000000000000000000000000000000000000000000000606482015290519081900360840190fd5b33600160a060020a038216148061159057506115908133612f48565b151561160c576040805160e560020a62461bcd02815260206004820152603860248201527f4552433732313a20617070726f76652063616c6c6572206973206e6f74206f7760448201527f6e6572206e6f7220617070726f76656420666f7220616c6c0000000000000000606482015290519081900360840190fd5b600082815260026020526040808220805473ffffffffffffffffffffffffffffffffffffffff1916600160a060020a0387811691821790925591518593918516917f8c5be1e5ebec7d5bd14f71427d1e84f3dd0314c0f7b2291e5b200ac8c7c3b92591a4505050565b601a6020526000908152604090205481565b61169033612842565b151561170c576040805160e560020a62461bcd02815260206004820152602481018290527f57686974656c69737441646d696e526f6c653a2063616c6c657220646f65732060448201527f6e6f742068617665207468652057686974656c69737441646d696e20726f6c65606482015290519081900360840190fd5b61171581613256565b50565b60075490565b600061172933611af1565b1515611781576040805160e560020a62461bcd02815260206004820152603a602482015260008051602061434683398151915260448201526000805160206143e9833981519152606482015290519081900360840190fd5b815161179490600e9060208501906141c1565b50600192915050565b6117a7338261329e565b1515611823576040805160e560020a62461bcd02815260206004820152603160248201527f4552433732313a207472616e736665722063616c6c6572206973206e6f74206f60448201527f776e6572206e6f7220617070726f766564000000000000000000000000000000606482015290519081900360840190fd5b61182e838383613383565b505050565b601e6020908152600091825260409182902080548351601f6002600019610100600186161502019093169290920491820184900484028101840190945280845290918301828280156118c65780601f1061189b576101008083540402835291602001916118c6565b820191906000526020600020905b8154815290600101906020018083116118a957829003601f168201915b505050505081565b6118d733612842565b1515611953576040805160e560020a62461bcd02815260206004820152602481018290527f57686974656c69737441646d696e526f6c653a2063616c6c657220646f65732060448201527f6e6f742068617665207468652057686974656c69737441646d696e20726f6c65606482015290519081900360840190fd5b611715816133a2565b6017805460408051602060026001851615610100026000190190941693909304601f810184900484028201840190925281815292918301828280156118c65780601f1061189b576101008083540402835291602001916118c6565b60006119c2836121e3565b8210611a3e576040805160e560020a62461bcd02815260206004820152602b60248201527f455243373231456e756d657261626c653a206f776e657220696e646578206f7560448201527f74206f6620626f756e6473000000000000000000000000000000000000000000606482015290519081900360840190fd5b600160a060020a0383166000908152600560205260409020805483908110611a6257fe5b9060005260206000200154905092915050565b60145481565b6000611a8633611af1565b1515611ade576040805160e560020a62461bcd02815260206004820152603a602482015260008051602061434683398151915260448201526000805160206143e9833981519152606482015290519081900360840190fd5b81516117949060179060208501906141c1565b6000611b04600c8363ffffffff6133ea16565b92915050565b600f805460408051602060026001851615610100026000190190941693909304601f810184900484028201840190925281815292918301828280156118c65780601f1061189b576101008083540402835291602001916118c6565b6000611b7033611af1565b1515611bc8576040805160e560020a62461bcd02815260206004820152603a602482015260008051602061434683398151915260448201526000805160206143e9833981519152606482015290519081900360840190fd5b6000838152601e602090815260409091208351611be7928501906141c1565b5060019392505050565b61182e83838360206040519081016040528060008152506127a9565b6000611c1883613239565b1515611c6e576040805160e560020a62461bcd02815260206004820152601060248201527f546f6b656e206d75737420657869737400000000000000000000000000000000604482015290519081900360640190fd5b611c778361214e565b600160a060020a031633600160a060020a03161480611c9a5750611c9a33611af1565b1515611cf0576040805160e560020a62461bcd02815260206004820152601960248201527f596f75206d7573742068617665207065726d697373696f6e2e00000000000000604482015290519081900360640190fd5b6000838152601d602090815260409091208351611be7928501906141c1565b6017805460408051602060026001851615610100026000190190941693909304601f810184900484028201840190925281815260009360609391929091830182828015611d9d5780601f10611d7257610100808354040283529160200191611d9d565b820191906000526020600020905b815481529060010190602001808311611d8057829003601f168201915b50505050509050601354341480611db5575060165434145b1515611e7d576040805160e560020a62461bcd02815260206004820152607a60248201527f4d7573742073656e6420636f727265637420616d6f756e742e20506c6561736560448201527f20636865636b20707269636520402070726963655065724d697363496e57656960648201527f206f722070726963655065724d697363496e746c53686970496e57656920666f60848201527f7220696e7465726e6174696f6e616c20736869706d656e74732e00000000000060a482015290519081900360c40190fd5b8051600010611ed6576040805160e560020a62461bcd02815260206004820152601860248201527f4d697363206974656d206e6f7420617661696c61626c652e0000000000000000604482015290519081900360640190fd5b600d54604080517f58178168000000000000000000000000000000000000000000000000000000008152600481018790529051600160a060020a0390921691635817816891602480820192602092909190829003018186803b158015611f3b57600080fd5b505afa158015611f4f573d6000803e3d6000fd5b505050506040513d6020811015611f6557600080fd5b5051600160a060020a03163314611fc6576040805160e560020a62461bcd02815260206004820152601160248201527f596f75206d757374206f776e2070756e6b000000000000000000000000000000604482015290519081900360640190fd5b6000611fd133613492565b6000818152601b60209081526040808320899055601d82529091208651929350611fff9290918701906141c1565b50601054604051600160a060020a03909116903480156108fc02916000818181858888f19350505050158015612039573d6000803e3d6000fd5b50949350505050565b61204b33613522565b565b600e805460408051602060026001851615610100026000190190941693909304601f810184900484028201840190925281815292918301828280156118c65780601f1061189b576101008083540402835291602001916118c6565b60006120b2611718565b821061212e576040805160e560020a62461bcd02815260206004820152602c60248201527f455243373231456e756d657261626c653a20676c6f62616c20696e646578206f60448201527f7574206f6620626f756e64730000000000000000000000000000000000000000606482015290519081900360840190fd5b600780548390811061213c57fe5b90600052602060002001549050919050565b600081815260016020526040812054600160a060020a0316801515611b04576040805160e560020a62461bcd02815260206004820152602960248201527f4552433732313a206f776e657220717565727920666f72206e6f6e657869737460448201527f656e7420746f6b656e0000000000000000000000000000000000000000000000606482015290519081900360840190fd5b6000600160a060020a038216151561226b576040805160e560020a62461bcd02815260206004820152602a60248201527f4552433732313a2062616c616e636520717565727920666f7220746865207a6560448201527f726f206164647265737300000000000000000000000000000000000000000000606482015290519081900360840190fd5b600160a060020a0382166000908152600360205260409020611b049061356a565b600061229733611af1565b15156122ef576040805160e560020a62461bcd02815260206004820152603a602482015260008051602061434683398151915260448201526000805160206143e9833981519152606482015290519081900360840190fd5b6122f883613239565b151561234e576040805160e560020a62461bcd02815260206004820152601060248201527f546f6b656e206d75737420657869737400000000000000000000000000000000604482015290519081900360640190fd5b506000918252601b602052604090912055600190565b61236d33612842565b15156123e9576040805160e560020a62461bcd02815260206004820152602481018290527f57686974656c69737441646d696e526f6c653a2063616c6c657220646f65732060448201527f6e6f742068617665207468652057686974656c69737441646d696e20726f6c65606482015290519081900360840190fd5b6117158161356e565b60006123fd33611af1565b1515612455576040805160e560020a62461bcd02815260206004820152603a602482015260008051602061434683398151915260448201526000805160206143e9833981519152606482015290519081900360840190fd5b600d54604080517f581781680000000000000000000000000000000000000000000000000000000081526004810186905290516000926124f292600160a060020a0390911691635817816891602480820192602092909190829003018186803b1580156124c157600080fd5b505afa1580156124d5573d6000803e3d6000fd5b505050506040513d60208110156124eb57600080fd5b5051613492565b6000818152601b60209081526040808320889055601c825290912085519293506125209290918601906141c1565b509392505050565b6060612533826135b6565b80548060200260200160405190810160405280929190818152602001828054801561257d57602002820191906000526020600020905b815481526020019060010190808311612569575b50505050509050919050565b600061259433611af1565b15156125ec576040805160e560020a62461bcd02815260206004820152603a602482015260008051602061434683398151915260448201526000805160206143e9833981519152606482015290519081900360840190fd5b815161179490600f9060208501906141c1565b600a8054604080516020601f600260001961010060018816150201909516949094049384018190048102820181019092528281526060939092909183018282801561142f5780601f106114045761010080835404028352916020019161142f565b60125481565b601c6020908152600091825260409182902080548351601f6002600019610100600186161502019093169290920491820184900484028101840190945280845290918301828280156118c65780601f1061189b576101008083540402835291602001916118c6565b600160a060020a03821633141561272f576040805160e560020a62461bcd02815260206004820152601960248201527f4552433732313a20617070726f766520746f2063616c6c657200000000000000604482015290519081900360640190fd5b336000818152600460209081526040808320600160a060020a03871680855290835292819020805460ff1916861515908117909155815190815290519293927f17307eab39ab6107e8899845ad3d59bd9653f200f220920489ca2b5937696c31929181900390910190a35050565b60165481565b60115481565b6127b484848461179d565b6127c0848484846135d0565b151561283c576040805160e560020a62461bcd02815260206004820152603260248201527f4552433732313a207472616e7366657220746f206e6f6e20455243373231526560448201527f63656976657220696d706c656d656e7465720000000000000000000000000000606482015290519081900360840190fd5b50505050565b6000611b04600b8363ffffffff6133ea16565b60185481565b600061286633611af1565b15156128be576040805160e560020a62461bcd02815260206004820152603a602482015260008051602061434683398151915260448201526000805160206143e9833981519152606482015290519081900360840190fd5b6000828152601e602052604081206128d59161423f565b506001919050565b601b6020526000908152604090205481565b6000601254341480612902575060155434145b15156129425760405160e560020a62461bcd0281526004018080602001828103825260838152602001806143666083913960a00191505060405180910390fd5b600d54604080517f58178168000000000000000000000000000000000000000000000000000000008152600481018690529051600160a060020a0390921691635817816891602480820192602092909190829003018186803b1580156129a757600080fd5b505afa1580156129bb573d6000803e3d6000fd5b505050506040513d60208110156129d157600080fd5b5051600160a060020a03163314612a32576040805160e560020a62461bcd02815260206004820152601160248201527f596f75206d757374206f776e2070756e6b000000000000000000000000000000604482015290519081900360640190fd5b6000612a3d33613492565b6000818152601b60209081526040808320889055601d82529091208551929350612a6b9290918601906141c1565b50601054604051600160a060020a03909116903480156108fc02916000818181858888f19350505050158015612520573d6000803e3d6000fd5b606081612ab181613239565b1515612b07576040805160e560020a62461bcd02815260206004820152601760248201527f546f6b656e20494420646f6573206e6f74206578697374000000000000000000604482015290519081900360640190fd5b6000838152601e6020526040812054600260001961010060018416150201909116041115612c6457600f8054604080516020601f60026000196101006001881615020190951694909404938401819004810282018101909252828152612c5d9390929091830182828015612bbc5780601f10612b9157610100808354040283529160200191612bbc565b820191906000526020600020905b815481529060010190602001808311612b9f57829003601f168201915b5050506000878152601e60209081526040918290208054835160026001831615610100026000190190921691909104601f810184900484028201840190945283815294509250830182828015612c535780601f10612c2857610100808354040283529160200191612c53565b820191906000526020600020905b815481529060010190602001808311612c3657829003601f168201915b505050505061374c565b9150612d07565b600e8054604080516020601f60026000196101006001881615020190951694909404938401819004810282018101909252828152612d049390929091830182828015612cf15780601f10612cc657610100808354040283529160200191612cf1565b820191906000526020600020905b815481529060010190602001808311612cd457829003601f168201915b5050505050612cff85613788565b61374c565b91505b50919050565b6000612d1833611af1565b1515612d70576040805160e560020a62461bcd02815260206004820152603a602482015260008051602061434683398151915260448201526000805160206143e9833981519152606482015290519081900360840190fd5b50601155600190565b60135481565b6000612d8a33611af1565b1515612de2576040805160e560020a62461bcd02815260206004820152603a602482015260008051602061434683398151915260448201526000805160206143e9833981519152606482015290519081900360840190fd5b50601255600190565b6000612df633611af1565b1515612e4e576040805160e560020a62461bcd02815260206004820152603a602482015260008051602061434683398151915260448201526000805160206143e9833981519152606482015290519081900360840190fd5b5060108054600160a060020a03831673ffffffffffffffffffffffffffffffffffffffff199091161790556001919050565b61204b336133a2565b6000601154341480612e9c575060145434145b15156129425760405160e560020a62461bcd0281526004018080602001828103825260888152602001806142be6088913960a00191505060405180910390fd5b6000612ee733611af1565b1515612f3f576040805160e560020a62461bcd02815260206004820152603a602482015260008051602061434683398151915260448201526000805160206143e9833981519152606482015290519081900360840190fd5b50601355600190565b600160a060020a03918216600090815260046020908152604080832093909416825291909152205460ff1690565b6000612f8133611af1565b1515612fd9576040805160e560020a62461bcd02815260206004820152603a602482015260008051602061434683398151915260448201526000805160206143e9833981519152606482015290519081900360840190fd5b612fe283613239565b1515613038576040805160e560020a62461bcd02815260206004820152601060248201527f546f6b656e206d75737420657869737400000000000000000000000000000000604482015290519081900360640190fd5b6000838152601c602090815260409091208351611be7928501906141c1565b600061306233611af1565b15156130ba576040805160e560020a62461bcd02815260206004820152603a602482015260008051602061434683398151915260448201526000805160206143e9833981519152606482015290519081900360840190fd5b50601455600190565b60155481565b60006130d433611af1565b151561312c576040805160e560020a62461bcd02815260206004820152603a602482015260008051602061434683398151915260448201526000805160206143e9833981519152606482015290519081900360840190fd5b50601655600190565b601054600160a060020a031681565b60196020526000908152604090205481565b601d6020908152600091825260409182902080548351601f6002600019610100600186161502019093169290920491820184900484028101840190945280845290918301828280156118c65780601f1061189b576101008083540402835291602001916118c6565b600d54600160a060020a031681565b60006131d833611af1565b1515613230576040805160e560020a62461bcd02815260206004820152603a602482015260008051602061434683398151915260448201526000805160206143e9833981519152606482015290519081900360840190fd5b50601555600190565b600090815260016020526040902054600160a060020a0316151590565b613267600c8263ffffffff61386316565b604051600160a060020a038216907fee1504a83b6d4a361f4c1dc78ab59bfa30d6a3b6612c403e86bb01ef2984295f90600090a250565b60006132a982613239565b1515613325576040805160e560020a62461bcd02815260206004820152602c60248201527f4552433732313a206f70657261746f7220717565727920666f72206e6f6e657860448201527f697374656e7420746f6b656e0000000000000000000000000000000000000000606482015290519081900360840190fd5b60006133308361214e565b905080600160a060020a031684600160a060020a0316148061336b575083600160a060020a03166133608461143a565b600160a060020a0316145b8061337b575061337b8185612f48565b949350505050565b61338e8383836138e7565b6133988382613ab7565b61182e8282613bae565b6133b3600c8263ffffffff613bec16565b604051600160a060020a038216907f270d9b30cf5b0793bbfd54c9d5b94aeb49462b8148399000265144a8722da6b690600090a250565b6000600160a060020a0382161515613472576040805160e560020a62461bcd02815260206004820152602260248201527f526f6c65733a206163636f756e7420697320746865207a65726f20616464726560448201527f7373000000000000000000000000000000000000000000000000000000000000606482015290519081900360840190fd5b50600160a060020a03166000908152602091909152604090205460ff1690565b6018546000906134a990600163ffffffff613c9416565b601881905560408051602080820184905243828401526c01000000000000000000000000330260608301528251605481840301815260749092019092528051910120906134f7908490613cf1565b601880546000838152601960209081526040808320849055928252601a905220919091555492915050565b613533600b8263ffffffff613bec16565b604051600160a060020a038216907f0a8eb35e5ca14b3d6f28e4abf2f128dbab231a58b56e89beb5d636115001e16590600090a250565b5490565b61357f600b8263ffffffff61386316565b604051600160a060020a038216907f22380c05984257a1cb900161c713dd71d39e74820f1aea43bd3f1bdd2096129990600090a250565b600160a060020a0316600090815260056020526040902090565b60006135e484600160a060020a0316613d12565b15156135f25750600161337b565b6040517f150b7a020000000000000000000000000000000000000000000000000000000081523360048201818152600160a060020a03888116602485015260448401879052608060648501908152865160848601528651600095928a169463150b7a029490938c938b938b939260a4019060208501908083838e5b8381101561368557818101518382015260200161366d565b50505050905090810190601f1680156136b25780820380516001836020036101000a031916815260200191505b5095505050505050602060405180830381600087803b1580156136d457600080fd5b505af11580156136e8573d6000803e3d6000fd5b505050506040513d60208110156136fe57600080fd5b50517bffffffffffffffffffffffffffffffffffffffffffffffffffffffff19167f150b7a020000000000000000000000000000000000000000000000000000000014915050949350505050565b604080516020818101835260008083528351808301855281815284519283019094528152606092613781928692869290613d1a565b9392505050565b60608115156137cb575060408051808201909152600181527f3000000000000000000000000000000000000000000000000000000000000000602082015261139e565b8160005b81156137e357600101600a820491506137cf565b6060816040519080825280601f01601f191660200182016040528015613810576020820181803883390190505b50905060001982015b851561203957815160001982019160f860020a6030600a8a06010291849190811061384057fe5b906020010190600160f860020a031916908160001a905350600a86049550613819565b61386d82826133ea565b156138c2576040805160e560020a62461bcd02815260206004820152601f60248201527f526f6c65733a206163636f756e7420616c72656164792068617320726f6c6500604482015290519081900360640190fd5b600160a060020a0316600090815260209190915260409020805460ff19166001179055565b82600160a060020a03166138fa8261214e565b600160a060020a03161461397e576040805160e560020a62461bcd02815260206004820152602960248201527f4552433732313a207472616e73666572206f6620746f6b656e2074686174206960448201527f73206e6f74206f776e0000000000000000000000000000000000000000000000606482015290519081900360840190fd5b600160a060020a0382161515613a03576040805160e560020a62461bcd028152602060048201526024808201527f4552433732313a207472616e7366657220746f20746865207a65726f2061646460448201527f7265737300000000000000000000000000000000000000000000000000000000606482015290519081900360840190fd5b613a0c81613f6f565b600160a060020a0383166000908152600360205260409020613a2d90613fb7565b600160a060020a0382166000908152600360205260409020613a4e90613fce565b600081815260016020526040808220805473ffffffffffffffffffffffffffffffffffffffff1916600160a060020a0386811691821790925591518493918716917fddf252ad1be2c89b69c2b068fc378daa952ba7f163c4a11628f55a4df523b3ef91a4505050565b600160a060020a038216600090815260056020526040812054613ae190600163ffffffff613fd716565b600083815260066020526040902054909150808214613b7e57600160a060020a0384166000908152600560205260408120805484908110613b1e57fe5b90600052602060002001549050806005600087600160a060020a0316600160a060020a0316815260200190815260200160002083815481101515613b5e57fe5b600091825260208083209091019290925591825260069052604090208190555b600160a060020a0384166000908152600560205260409020805490613ba7906000198301614283565b5050505050565b600160a060020a0390911660009081526005602081815260408084208054868652600684529185208290559282526001810183559183529091200155565b613bf682826133ea565b1515613c72576040805160e560020a62461bcd02815260206004820152602160248201527f526f6c65733a206163636f756e7420646f6573206e6f74206861766520726f6c60448201527f6500000000000000000000000000000000000000000000000000000000000000606482015290519081900360840190fd5b600160a060020a0316600090815260209190915260409020805460ff19169055565b600082820183811015613781576040805160e560020a62461bcd02815260206004820152601b60248201527f536166654d6174683a206164646974696f6e206f766572666c6f770000000000604482015290519081900360640190fd5b613cfb8282614037565b613d058282613bae565b613d0e8161417d565b5050565b6000903b1190565b6060808690506060869050606086905060608690506060869050606081518351855187518951010101016040519080825280601f01601f191660200182016040528015613d6e576020820181803883390190505b509050806000805b8851811015613dd4578881815181101515613d8d57fe5b90602001015160f860020a900460f860020a028383806001019450815181101515613db457fe5b906020010190600160f860020a031916908160001a905350600101613d76565b5060005b8751811015613e36578781815181101515613def57fe5b90602001015160f860020a900460f860020a028383806001019450815181101515613e1657fe5b906020010190600160f860020a031916908160001a905350600101613dd8565b5060005b8651811015613e98578681815181101515613e5157fe5b90602001015160f860020a900460f860020a028383806001019450815181101515613e7857fe5b906020010190600160f860020a031916908160001a905350600101613e3a565b5060005b8551811015613efa578581815181101515613eb357fe5b90602001015160f860020a900460f860020a028383806001019450815181101515613eda57fe5b906020010190600160f860020a031916908160001a905350600101613e9c565b5060005b8451811015613f5c578481815181101515613f1557fe5b90602001015160f860020a900460f860020a028383806001019450815181101515613f3c57fe5b906020010190600160f860020a031916908160001a905350600101613efe565b50909d9c50505050505050505050505050565b600081815260026020526040902054600160a060020a031615611715576000908152600260205260409020805473ffffffffffffffffffffffffffffffffffffffff19169055565b8054613fca90600163ffffffff613fd716565b9055565b80546001019055565b600082821115614031576040805160e560020a62461bcd02815260206004820152601e60248201527f536166654d6174683a207375627472616374696f6e206f766572666c6f770000604482015290519081900360640190fd5b50900390565b600160a060020a0382161515614097576040805160e560020a62461bcd02815260206004820181905260248201527f4552433732313a206d696e7420746f20746865207a65726f2061646472657373604482015290519081900360640190fd5b6140a081613239565b156140f5576040805160e560020a62461bcd02815260206004820152601c60248201527f4552433732313a20746f6b656e20616c7265616479206d696e74656400000000604482015290519081900360640190fd5b6000818152600160209081526040808320805473ffffffffffffffffffffffffffffffffffffffff1916600160a060020a03871690811790915583526003909152902061414190613fce565b6040518190600160a060020a038416906000907fddf252ad1be2c89b69c2b068fc378daa952ba7f163c4a11628f55a4df523b3ef908290a45050565b600780546000838152600860205260408120829055600182018355919091527fa66cc928b5edb82af9bd49922954155ab7b0942694bea4ce44661d9a8736c6880155565b828054600181600116156101000203166002900490600052602060002090601f016020900481019282601f1061420257805160ff191683800117855561422f565b8280016001018555821561422f579182015b8281111561422f578251825591602001919060010190614214565b5061423b9291506142a3565b5090565b50805460018160011615610100020316600290046000825580601f106142655750611715565b601f01602090049060005260206000209081019061171591906142a3565b81548183558181111561182e5760008381526020902061182e9181019083015b61143791905b8082111561423b57600081556001016142a956fe4d7573742073656e6420636f727265637420616d6f756e7420666f722061207072696e742e20506c6561736520636865636b20707269636520402070726963655065725072696e74496e576569206f722070726963655065725072696e74496e746c53686970496e57656920666f7220696e7465726e6174696f6e616c20736869706d656e74732e57686974656c6973746564526f6c653a2063616c6c657220646f6573206e6f744d7573742073656e6420636f727265637420616d6f756e7420666f7220616e204e46432e20506c6561736520636865636b20707269636520402070726963655065724e4643496e576569206f722070726963655065724e4643496e746c53686970496e57656920666f7220696e7465726e6174696f6e616c20736869706d656e74732e2068617665207468652057686974656c697374656420726f6c65000000000000a165627a7a72305820a073b81f5204bd492e6361424d95792eec955e70c3b08ae08be3d84ed20bfa940029",
  "source": "\n/**************\n * A registry of provably authentic physical prints of Punks from the Larva Labs\n * CryptoPunks generative art project (https://www.larvalabs.com/cryptopunks).\n * In order to purchase a print you must be able to prove ownership of the Punk.\n * This is done by sending payment for the print from the account address that \n * holds the Punk itself. There are three types of purchase. One is a print of your Punk\n * accompanied by an NFC that contains the details of your transaction. You may also \n * purchase the NFC by itself if you want to print your own Punk. There is a Misc purchase\n * option as well for a potential future item added to the store.\n * \n * To purchase, confirm the price (in wei) of the item you would like to purchase by\n * calling the pricePer* function in the contract. Next, execute the purchase \n * function for the corresponding item sending the necessary amount in ETH. If you are in \n * the USA the item price includes shipping. There is a price for items shipped\n * internationally so if you are purchasing from outside the USA make sure you send\n * the higher value noted with \"IntlShip\" in the item's variable name. \n * \n * Please also include a contact method in your purchase transaction. You will have to \n * contact us with your mailing address so we know where to send your print! That information \n * must come from the contact method indicated at time of purchase.\n *\n * Prices subject to change without notice. No returns or exchanges.\n * \n * Prints produced by Art Blocks LLC, Houston TX. For information or to send\n * your mailing address after a purchase please contact us at info@artblocks.io.\n * \n * Copyright Art Blocks LLC 2020. www.artblocks.io.\n *************/\n\n\n\n// File: openzeppelin-solidity/contracts/introspection/IERC165.sol\n\npragma solidity ^0.5.0;\n\n/**\n * @dev Interface of the ERC165 standard, as defined in the\n * [EIP](https://eips.ethereum.org/EIPS/eip-165).\n *\n * Implementers can declare support of contract interfaces, which can then be\n * queried by others (`ERC165Checker`).\n *\n * For an implementation, see `ERC165`.\n */\ninterface IERC165 {\n    /**\n     * @dev Returns true if this contract implements the interface defined by\n     * `interfaceId`. See the corresponding\n     * [EIP section](https://eips.ethereum.org/EIPS/eip-165#how-interfaces-are-identified)\n     * to learn more about how these ids are created.\n     *\n     * This function call must use less than 30 000 gas.\n     */\n    function supportsInterface(bytes4 interfaceId) external view returns (bool);\n}\n\n// File: openzeppelin-solidity/contracts/token/ERC721/IERC721.sol\n\npragma solidity ^0.5.0;\n\n\n/**\n * @dev Required interface of an ERC721 compliant contract.\n */\ncontract IERC721 is IERC165 {\n    event Transfer(address indexed from, address indexed to, uint256 indexed tokenId);\n    event Approval(address indexed owner, address indexed approved, uint256 indexed tokenId);\n    event ApprovalForAll(address indexed owner, address indexed operator, bool approved);\n\n    /**\n     * @dev Returns the number of NFTs in `owner`'s account.\n     */\n    function balanceOf(address owner) public view returns (uint256 balance);\n\n    /**\n     * @dev Returns the owner of the NFT specified by `tokenId`.\n     */\n    function ownerOf(uint256 tokenId) public view returns (address owner);\n\n    /**\n     * @dev Transfers a specific NFT (`tokenId`) from one account (`from`) to\n     * another (`to`).\n     *\n     * \n     *\n     * Requirements:\n     * - `from`, `to` cannot be zero.\n     * - `tokenId` must be owned by `from`.\n     * - If the caller is not `from`, it must be have been allowed to move this\n     * NFT by either `approve` or `setApproveForAll`.\n     */\n    function safeTransferFrom(address from, address to, uint256 tokenId) public;\n    /**\n     * @dev Transfers a specific NFT (`tokenId`) from one account (`from`) to\n     * another (`to`).\n     *\n     * Requirements:\n     * - If the caller is not `from`, it must be approved to move this NFT by\n     * either `approve` or `setApproveForAll`.\n     */\n    function transferFrom(address from, address to, uint256 tokenId) public;\n    function approve(address to, uint256 tokenId) public;\n    function getApproved(uint256 tokenId) public view returns (address operator);\n\n    function setApprovalForAll(address operator, bool _approved) public;\n    function isApprovedForAll(address owner, address operator) public view returns (bool);\n\n\n    function safeTransferFrom(address from, address to, uint256 tokenId, bytes memory data) public;\n}\n\n// File: openzeppelin-solidity/contracts/token/ERC721/IERC721Receiver.sol\n\npragma solidity ^0.5.0;\n\n/**\n * @title ERC721 token receiver interface\n * @dev Interface for any contract that wants to support safeTransfers\n * from ERC721 asset contracts.\n */\ncontract IERC721Receiver {\n    /**\n     * @notice Handle the receipt of an NFT\n     * @dev The ERC721 smart contract calls this function on the recipient\n     * after a `safeTransfer`. This function MUST return the function selector,\n     * otherwise the caller will revert the transaction. The selector to be\n     * returned can be obtained as `this.onERC721Received.selector`. This\n     * function MAY throw to revert and reject the transfer.\n     * Note: the ERC721 contract address is always the message sender.\n     * @param operator The address which called `safeTransferFrom` function\n     * @param from The address which previously owned the token\n     * @param tokenId The NFT identifier which is being transferred\n     * @param data Additional data with no specified format\n     * @return bytes4 `bytes4(keccak256(\"onERC721Received(address,address,uint256,bytes)\"))`\n     */\n    function onERC721Received(address operator, address from, uint256 tokenId, bytes memory data)\n    public returns (bytes4);\n}\n\n// File: openzeppelin-solidity/contracts/math/SafeMath.sol\n\n\n\npragma solidity ^0.5.0;\n\n/**\n * @dev Wrappers over Solidity's arithmetic operations with added overflow\n * checks.\n *\n * Arithmetic operations in Solidity wrap on overflow. This can easily result\n * in bugs, because programmers usually assume that an overflow raises an\n * error, which is the standard behavior in high level programming languages.\n * `SafeMath` restores this intuition by reverting the transaction when an\n * operation overflows.\n *\n * Using this library instead of the unchecked operations eliminates an entire\n * class of bugs, so it's recommended to use it always.\n */\nlibrary SafeMath {\n    /**\n     * @dev Returns the addition of two unsigned integers, reverting on\n     * overflow.\n     *\n     * Counterpart to Solidity's `+` operator.\n     *\n     * Requirements:\n     * - Addition cannot overflow.\n     */\n    function add(uint256 a, uint256 b) internal pure returns (uint256) {\n        uint256 c = a + b;\n        require(c >= a, \"SafeMath: addition overflow\");\n\n        return c;\n    }\n\n    /**\n     * @dev Returns the subtraction of two unsigned integers, reverting on\n     * overflow (when the result is negative).\n     *\n     * Counterpart to Solidity's `-` operator.\n     *\n     * Requirements:\n     * - Subtraction cannot overflow.\n     */\n    function sub(uint256 a, uint256 b) internal pure returns (uint256) {\n        require(b <= a, \"SafeMath: subtraction overflow\");\n        uint256 c = a - b;\n\n        return c;\n    }\n\n    /**\n     * @dev Returns the multiplication of two unsigned integers, reverting on\n     * overflow.\n     *\n     * Counterpart to Solidity's `*` operator.\n     *\n     * Requirements:\n     * - Multiplication cannot overflow.\n     */\n    function mul(uint256 a, uint256 b) internal pure returns (uint256) {\n        // Gas optimization: this is cheaper than requiring 'a' not being zero, but the\n        // benefit is lost if 'b' is also tested.\n        // See: https://github.com/OpenZeppelin/openzeppelin-solidity/pull/522\n        if (a == 0) {\n            return 0;\n        }\n\n        uint256 c = a * b;\n        require(c / a == b, \"SafeMath: multiplication overflow\");\n\n        return c;\n    }\n\n    /**\n     * @dev Returns the integer division of two unsigned integers. Reverts on\n     * division by zero. The result is rounded towards zero.\n     *\n     * Counterpart to Solidity's `/` operator. Note: this function uses a\n     * `revert` opcode (which leaves remaining gas untouched) while Solidity\n     * uses an invalid opcode to revert (consuming all remaining gas).\n     *\n     * Requirements:\n     * - The divisor cannot be zero.\n     */\n    function div(uint256 a, uint256 b) internal pure returns (uint256) {\n        // Solidity only automatically asserts when dividing by 0\n        require(b > 0, \"SafeMath: division by zero\");\n        uint256 c = a / b;\n        // assert(a == b * c + a % b); // There is no case in which this doesn't hold\n\n        return c;\n    }\n\n    /**\n     * @dev Returns the remainder of dividing two unsigned integers. (unsigned integer modulo),\n     * Reverts when dividing by zero.\n     *\n     * Counterpart to Solidity's `%` operator. This function uses a `revert`\n     * opcode (which leaves remaining gas untouched) while Solidity uses an\n     * invalid opcode to revert (consuming all remaining gas).\n     *\n     * Requirements:\n     * - The divisor cannot be zero.\n     */\n    function mod(uint256 a, uint256 b) internal pure returns (uint256) {\n        require(b != 0, \"SafeMath: modulo by zero\");\n        return a % b;\n    }\n}\n\n// File: openzeppelin-solidity/contracts/utils/Address.sol\n\npragma solidity ^0.5.0;\n\n/**\n * @dev Collection of functions related to the address type,\n */\nlibrary Address {\n    /**\n     * @dev Returns true if `account` is a contract.\n     *\n     * This test is non-exhaustive, and there may be false-negatives: during the\n     * execution of a contract's constructor, its address will be reported as\n     * not containing a contract.\n     *\n     * > It is unsafe to assume that an address for which this function returns\n     * false is an externally-owned account (EOA) and not a contract.\n     */\n    function isContract(address account) internal view returns (bool) {\n        // This method relies in extcodesize, which returns 0 for contracts in\n        // construction, since the code is only stored at the end of the\n        // constructor execution.\n\n        uint256 size;\n        // solhint-disable-next-line no-inline-assembly\n        assembly { size := extcodesize(account) }\n        return size > 0;\n    }\n}\n\n// File: openzeppelin-solidity/contracts/drafts/Counters.sol\n\npragma solidity ^0.5.0;\n\n\n/**\n * @title Counters\n * @author Matt Condon (@shrugs)\n * @dev Provides counters that can only be incremented or decremented by one. This can be used e.g. to track the number\n * of elements in a mapping, issuing ERC721 ids, or counting request ids.\n *\n * Include with `using Counters for Counters.Counter;`\n * Since it is not possible to overflow a 256 bit integer with increments of one, `increment` can skip the SafeMath\n * overflow check, thereby saving gas. This does assume however correct usage, in that the underlying `_value` is never\n * directly accessed.\n */\nlibrary Counters {\n    using SafeMath for uint256;\n\n    struct Counter {\n        // This variable should never be directly accessed by users of the library: interactions must be restricted to\n        // the library's function. As of Solidity v0.5.2, this cannot be enforced, though there is a proposal to add\n        // this feature: see https://github.com/ethereum/solidity/issues/4637\n        uint256 _value; // default: 0\n    }\n\n    function current(Counter storage counter) internal view returns (uint256) {\n        return counter._value;\n    }\n\n    function increment(Counter storage counter) internal {\n        counter._value += 1;\n    }\n\n    function decrement(Counter storage counter) internal {\n        counter._value = counter._value.sub(1);\n    }\n}\n\n// File: openzeppelin-solidity/contracts/introspection/ERC165.sol\n\npragma solidity ^0.5.0;\n\n\n/**\n * @dev Implementation of the `IERC165` interface.\n *\n * Contracts may inherit from this and call `_registerInterface` to declare\n * their support of an interface.\n */\ncontract ERC165 is IERC165 {\n    /*\n     * bytes4(keccak256('supportsInterface(bytes4)')) == 0x01ffc9a7\n     */\n    bytes4 private constant _INTERFACE_ID_ERC165 = 0x01ffc9a7;\n\n    /**\n     * @dev Mapping of interface ids to whether or not it's supported.\n     */\n    mapping(bytes4 => bool) private _supportedInterfaces;\n\n    constructor () internal {\n        // Derived contracts need only register support for their own interfaces,\n        // we register support for ERC165 itself here\n        _registerInterface(_INTERFACE_ID_ERC165);\n    }\n\n    /**\n     * @dev See `IERC165.supportsInterface`.\n     *\n     * Time complexity O(1), guaranteed to always use less than 30 000 gas.\n     */\n    function supportsInterface(bytes4 interfaceId) external view returns (bool) {\n        return _supportedInterfaces[interfaceId];\n    }\n\n    /**\n     * @dev Registers the contract as an implementer of the interface defined by\n     * `interfaceId`. Support of the actual ERC165 interface is automatic and\n     * registering its interface id is not required.\n     *\n     * See `IERC165.supportsInterface`.\n     *\n     * Requirements:\n     *\n     * - `interfaceId` cannot be the ERC165 invalid interface (`0xffffffff`).\n     */\n    function _registerInterface(bytes4 interfaceId) internal {\n        require(interfaceId != 0xffffffff, \"ERC165: invalid interface id\");\n        _supportedInterfaces[interfaceId] = true;\n    }\n}\n\n// File: openzeppelin-solidity/contracts/token/ERC721/ERC721.sol\n\npragma solidity ^0.5.0;\n\n\n\n\n\n\n\n/**\n * @title ERC721 Non-Fungible Token Standard basic implementation\n * @dev see https://eips.ethereum.org/EIPS/eip-721\n */\ncontract ERC721 is ERC165, IERC721 {\n    using SafeMath for uint256;\n    using Address for address;\n    using Counters for Counters.Counter;\n\n    // Equals to `bytes4(keccak256(\"onERC721Received(address,address,uint256,bytes)\"))`\n    // which can be also obtained as `IERC721Receiver(0).onERC721Received.selector`\n    bytes4 private constant _ERC721_RECEIVED = 0x150b7a02;\n\n    // Mapping from token ID to owner\n    mapping (uint256 => address) private _tokenOwner;\n\n    // Mapping from token ID to approved address\n    mapping (uint256 => address) private _tokenApprovals;\n\n    // Mapping from owner to number of owned token\n    mapping (address => Counters.Counter) private _ownedTokensCount;\n\n    // Mapping from owner to operator approvals\n    mapping (address => mapping (address => bool)) private _operatorApprovals;\n\n    /*\n     *     bytes4(keccak256('balanceOf(address)')) == 0x70a08231\n     *     bytes4(keccak256('ownerOf(uint256)')) == 0x6352211e\n     *     bytes4(keccak256('approve(address,uint256)')) == 0x095ea7b3\n     *     bytes4(keccak256('getApproved(uint256)')) == 0x081812fc\n     *     bytes4(keccak256('setApprovalForAll(address,bool)')) == 0xa22cb465\n     *     bytes4(keccak256('isApprovedForAll(address,address)')) == 0xe985e9c\n     *     bytes4(keccak256('transferFrom(address,address,uint256)')) == 0x23b872dd\n     *     bytes4(keccak256('safeTransferFrom(address,address,uint256)')) == 0x42842e0e\n     *     bytes4(keccak256('safeTransferFrom(address,address,uint256,bytes)')) == 0xb88d4fde\n     *\n     *     => 0x70a08231 ^ 0x6352211e ^ 0x095ea7b3 ^ 0x081812fc ^\n     *        0xa22cb465 ^ 0xe985e9c ^ 0x23b872dd ^ 0x42842e0e ^ 0xb88d4fde == 0x80ac58cd\n     */\n    bytes4 private constant _INTERFACE_ID_ERC721 = 0x80ac58cd;\n\n    constructor () public {\n        // register the supported interfaces to conform to ERC721 via ERC165\n        _registerInterface(_INTERFACE_ID_ERC721);\n    }\n\n    /**\n     * @dev Gets the balance of the specified address.\n     * @param owner address to query the balance of\n     * @return uint256 representing the amount owned by the passed address\n     */\n    function balanceOf(address owner) public view returns (uint256) {\n        require(owner != address(0), \"ERC721: balance query for the zero address\");\n\n        return _ownedTokensCount[owner].current();\n    }\n\n    /**\n     * @dev Gets the owner of the specified token ID.\n     * @param tokenId uint256 ID of the token to query the owner of\n     * @return address currently marked as the owner of the given token ID\n     */\n    function ownerOf(uint256 tokenId) public view returns (address) {\n        address owner = _tokenOwner[tokenId];\n        require(owner != address(0), \"ERC721: owner query for nonexistent token\");\n\n        return owner;\n    }\n\n    /**\n     * @dev Approves another address to transfer the given token ID\n     * The zero address indicates there is no approved address.\n     * There can only be one approved address per token at a given time.\n     * Can only be called by the token owner or an approved operator.\n     * @param to address to be approved for the given token ID\n     * @param tokenId uint256 ID of the token to be approved\n     */\n    function approve(address to, uint256 tokenId) public {\n        address owner = ownerOf(tokenId);\n        require(to != owner, \"ERC721: approval to current owner\");\n\n        require(msg.sender == owner || isApprovedForAll(owner, msg.sender),\n            \"ERC721: approve caller is not owner nor approved for all\"\n        );\n\n        _tokenApprovals[tokenId] = to;\n        emit Approval(owner, to, tokenId);\n    }\n\n    /**\n     * @dev Gets the approved address for a token ID, or zero if no address set\n     * Reverts if the token ID does not exist.\n     * @param tokenId uint256 ID of the token to query the approval of\n     * @return address currently approved for the given token ID\n     */\n    function getApproved(uint256 tokenId) public view returns (address) {\n        require(_exists(tokenId), \"ERC721: approved query for nonexistent token\");\n\n        return _tokenApprovals[tokenId];\n    }\n\n    /**\n     * @dev Sets or unsets the approval of a given operator\n     * An operator is allowed to transfer all tokens of the sender on their behalf.\n     * @param to operator address to set the approval\n     * @param approved representing the status of the approval to be set\n     */\n    function setApprovalForAll(address to, bool approved) public {\n        require(to != msg.sender, \"ERC721: approve to caller\");\n\n        _operatorApprovals[msg.sender][to] = approved;\n        emit ApprovalForAll(msg.sender, to, approved);\n    }\n\n    /**\n     * @dev Tells whether an operator is approved by a given owner.\n     * @param owner owner address which you want to query the approval of\n     * @param operator operator address which you want to query the approval of\n     * @return bool whether the given operator is approved by the given owner\n     */\n    function isApprovedForAll(address owner, address operator) public view returns (bool) {\n        return _operatorApprovals[owner][operator];\n    }\n\n    /**\n     * @dev Transfers the ownership of a given token ID to another address.\n     * Usage of this method is discouraged, use `safeTransferFrom` whenever possible.\n     * Requires the msg.sender to be the owner, approved, or operator.\n     * @param from current owner of the token\n     * @param to address to receive the ownership of the given token ID\n     * @param tokenId uint256 ID of the token to be transferred\n     */\n    function transferFrom(address from, address to, uint256 tokenId) public {\n        //solhint-disable-next-line max-line-length\n        require(_isApprovedOrOwner(msg.sender, tokenId), \"ERC721: transfer caller is not owner nor approved\");\n\n        _transferFrom(from, to, tokenId);\n    }\n\n    /**\n     * @dev Safely transfers the ownership of a given token ID to another address\n     * If the target address is a contract, it must implement `onERC721Received`,\n     * which is called upon a safe transfer, and return the magic value\n     * `bytes4(keccak256(\"onERC721Received(address,address,uint256,bytes)\"))`; otherwise,\n     * the transfer is reverted.\n     * Requires the msg.sender to be the owner, approved, or operator\n     * @param from current owner of the token\n     * @param to address to receive the ownership of the given token ID\n     * @param tokenId uint256 ID of the token to be transferred\n     */\n    function safeTransferFrom(address from, address to, uint256 tokenId) public {\n        safeTransferFrom(from, to, tokenId, \"\");\n    }\n\n    /**\n     * @dev Safely transfers the ownership of a given token ID to another address\n     * If the target address is a contract, it must implement `onERC721Received`,\n     * which is called upon a safe transfer, and return the magic value\n     * `bytes4(keccak256(\"onERC721Received(address,address,uint256,bytes)\"))`; otherwise,\n     * the transfer is reverted.\n     * Requires the msg.sender to be the owner, approved, or operator\n     * @param from current owner of the token\n     * @param to address to receive the ownership of the given token ID\n     * @param tokenId uint256 ID of the token to be transferred\n     * @param _data bytes data to send along with a safe transfer check\n     */\n    function safeTransferFrom(address from, address to, uint256 tokenId, bytes memory _data) public {\n        transferFrom(from, to, tokenId);\n        require(_checkOnERC721Received(from, to, tokenId, _data), \"ERC721: transfer to non ERC721Receiver implementer\");\n    }\n\n    /**\n     * @dev Returns whether the specified token exists.\n     * @param tokenId uint256 ID of the token to query the existence of\n     * @return bool whether the token exists\n     */\n    function _exists(uint256 tokenId) internal view returns (bool) {\n        address owner = _tokenOwner[tokenId];\n        return owner != address(0);\n    }\n\n    /**\n     * @dev Returns whether the given spender can transfer a given token ID.\n     * @param spender address of the spender to query\n     * @param tokenId uint256 ID of the token to be transferred\n     * @return bool whether the msg.sender is approved for the given token ID,\n     * is an operator of the owner, or is the owner of the token\n     */\n    function _isApprovedOrOwner(address spender, uint256 tokenId) internal view returns (bool) {\n        require(_exists(tokenId), \"ERC721: operator query for nonexistent token\");\n        address owner = ownerOf(tokenId);\n        return (spender == owner || getApproved(tokenId) == spender || isApprovedForAll(owner, spender));\n    }\n\n    /**\n     * @dev Internal function to mint a new token.\n     * Reverts if the given token ID already exists.\n     * @param to The address that will own the minted token\n     * @param tokenId uint256 ID of the token to be minted\n     */\n    function _mint(address to, uint256 tokenId) internal {\n        require(to != address(0), \"ERC721: mint to the zero address\");\n        require(!_exists(tokenId), \"ERC721: token already minted\");\n\n        _tokenOwner[tokenId] = to;\n        _ownedTokensCount[to].increment();\n\n        emit Transfer(address(0), to, tokenId);\n    }\n\n    /**\n     * @dev Internal function to burn a specific token.\n     * Reverts if the token does not exist.\n     * Deprecated, use _burn(uint256) instead.\n     * @param owner owner of the token to burn\n     * @param tokenId uint256 ID of the token being burned\n     */\n    function _burn(address owner, uint256 tokenId) internal {\n        require(ownerOf(tokenId) == owner, \"ERC721: burn of token that is not own\");\n\n        _clearApproval(tokenId);\n\n        _ownedTokensCount[owner].decrement();\n        _tokenOwner[tokenId] = address(0);\n\n        emit Transfer(owner, address(0), tokenId);\n    }\n\n    /**\n     * @dev Internal function to burn a specific token.\n     * Reverts if the token does not exist.\n     * @param tokenId uint256 ID of the token being burned\n     */\n    function _burn(uint256 tokenId) internal {\n        _burn(ownerOf(tokenId), tokenId);\n    }\n\n    /**\n     * @dev Internal function to transfer ownership of a given token ID to another address.\n     * As opposed to transferFrom, this imposes no restrictions on msg.sender.\n     * @param from current owner of the token\n     * @param to address to receive the ownership of the given token ID\n     * @param tokenId uint256 ID of the token to be transferred\n     */\n    function _transferFrom(address from, address to, uint256 tokenId) internal {\n        require(ownerOf(tokenId) == from, \"ERC721: transfer of token that is not own\");\n        require(to != address(0), \"ERC721: transfer to the zero address\");\n\n        _clearApproval(tokenId);\n\n        _ownedTokensCount[from].decrement();\n        _ownedTokensCount[to].increment();\n\n        _tokenOwner[tokenId] = to;\n\n        emit Transfer(from, to, tokenId);\n    }\n\n    /**\n     * @dev Internal function to invoke `onERC721Received` on a target address.\n     * The call is not executed if the target address is not a contract.\n     *\n     * This function is deprecated.\n     * @param from address representing the previous owner of the given token ID\n     * @param to target address that will receive the tokens\n     * @param tokenId uint256 ID of the token to be transferred\n     * @param _data bytes optional data to send along with the call\n     * @return bool whether the call correctly returned the expected magic value\n     */\n    function _checkOnERC721Received(address from, address to, uint256 tokenId, bytes memory _data)\n        internal returns (bool)\n    {\n        if (!to.isContract()) {\n            return true;\n        }\n\n        bytes4 retval = IERC721Receiver(to).onERC721Received(msg.sender, from, tokenId, _data);\n        return (retval == _ERC721_RECEIVED);\n    }\n\n    /**\n     * @dev Private function to clear current approval of a given token ID.\n     * @param tokenId uint256 ID of the token to be transferred\n     */\n    function _clearApproval(uint256 tokenId) private {\n        if (_tokenApprovals[tokenId] != address(0)) {\n            _tokenApprovals[tokenId] = address(0);\n        }\n    }\n}\n\n// File: openzeppelin-solidity/contracts/token/ERC721/IERC721Enumerable.sol\n\npragma solidity ^0.5.0;\n\n\n/**\n * @title ERC-721 Non-Fungible Token Standard, optional enumeration extension\n * @dev See https://eips.ethereum.org/EIPS/eip-721\n */\ncontract IERC721Enumerable is IERC721 {\n    function totalSupply() public view returns (uint256);\n    function tokenOfOwnerByIndex(address owner, uint256 index) public view returns (uint256 tokenId);\n\n    function tokenByIndex(uint256 index) public view returns (uint256);\n}\n\n// File: openzeppelin-solidity/contracts/token/ERC721/ERC721Enumerable.sol\n\npragma solidity ^0.5.0;\n\n\n\n\n/**\n * @title ERC-721 Non-Fungible Token with optional enumeration extension logic\n * @dev See https://eips.ethereum.org/EIPS/eip-721\n */\ncontract ERC721Enumerable is ERC165, ERC721, IERC721Enumerable {\n    // Mapping from owner to list of owned token IDs\n    mapping(address => uint256[]) private _ownedTokens;\n\n    // Mapping from token ID to index of the owner tokens list\n    mapping(uint256 => uint256) private _ownedTokensIndex;\n\n    // Array with all token ids, used for enumeration\n    uint256[] private _allTokens;\n\n    // Mapping from token id to position in the allTokens array\n    mapping(uint256 => uint256) private _allTokensIndex;\n\n    /*\n     *     bytes4(keccak256('totalSupply()')) == 0x18160ddd\n     *     bytes4(keccak256('tokenOfOwnerByIndex(address,uint256)')) == 0x2f745c59\n     *     bytes4(keccak256('tokenByIndex(uint256)')) == 0x4f6ccce7\n     *\n     *     => 0x18160ddd ^ 0x2f745c59 ^ 0x4f6ccce7 == 0x780e9d63\n     */\n    bytes4 private constant _INTERFACE_ID_ERC721_ENUMERABLE = 0x780e9d63;\n\n    /**\n     * @dev Constructor function.\n     */\n    constructor () public {\n        // register the supported interface to conform to ERC721Enumerable via ERC165\n        _registerInterface(_INTERFACE_ID_ERC721_ENUMERABLE);\n    }\n\n    /**\n     * @dev Gets the token ID at a given index of the tokens list of the requested owner.\n     * @param owner address owning the tokens list to be accessed\n     * @param index uint256 representing the index to be accessed of the requested tokens list\n     * @return uint256 token ID at the given index of the tokens list owned by the requested address\n     */\n    function tokenOfOwnerByIndex(address owner, uint256 index) public view returns (uint256) {\n        require(index < balanceOf(owner), \"ERC721Enumerable: owner index out of bounds\");\n        return _ownedTokens[owner][index];\n    }\n\n    /**\n     * @dev Gets the total amount of tokens stored by the contract.\n     * @return uint256 representing the total amount of tokens\n     */\n    function totalSupply() public view returns (uint256) {\n        return _allTokens.length;\n    }\n\n    /**\n     * @dev Gets the token ID at a given index of all the tokens in this contract\n     * Reverts if the index is greater or equal to the total number of tokens.\n     * @param index uint256 representing the index to be accessed of the tokens list\n     * @return uint256 token ID at the given index of the tokens list\n     */\n    function tokenByIndex(uint256 index) public view returns (uint256) {\n        require(index < totalSupply(), \"ERC721Enumerable: global index out of bounds\");\n        return _allTokens[index];\n    }\n\n    /**\n     * @dev Internal function to transfer ownership of a given token ID to another address.\n     * As opposed to transferFrom, this imposes no restrictions on msg.sender.\n     * @param from current owner of the token\n     * @param to address to receive the ownership of the given token ID\n     * @param tokenId uint256 ID of the token to be transferred\n     */\n    function _transferFrom(address from, address to, uint256 tokenId) internal {\n        super._transferFrom(from, to, tokenId);\n\n        _removeTokenFromOwnerEnumeration(from, tokenId);\n\n        _addTokenToOwnerEnumeration(to, tokenId);\n    }\n\n    /**\n     * @dev Internal function to mint a new token.\n     * Reverts if the given token ID already exists.\n     * @param to address the beneficiary that will own the minted token\n     * @param tokenId uint256 ID of the token to be minted\n     */\n    function _mint(address to, uint256 tokenId) internal {\n        super._mint(to, tokenId);\n\n        _addTokenToOwnerEnumeration(to, tokenId);\n\n        _addTokenToAllTokensEnumeration(tokenId);\n    }\n\n    /**\n     * @dev Internal function to burn a specific token.\n     * Reverts if the token does not exist.\n     * Deprecated, use _burn(uint256) instead.\n     * @param owner owner of the token to burn\n     * @param tokenId uint256 ID of the token being burned\n     */\n    function _burn(address owner, uint256 tokenId) internal {\n        super._burn(owner, tokenId);\n\n        _removeTokenFromOwnerEnumeration(owner, tokenId);\n        // Since tokenId will be deleted, we can clear its slot in _ownedTokensIndex to trigger a gas refund\n        _ownedTokensIndex[tokenId] = 0;\n\n        _removeTokenFromAllTokensEnumeration(tokenId);\n    }\n\n    /**\n     * @dev Gets the list of token IDs of the requested owner.\n     * @param owner address owning the tokens\n     * @return uint256[] List of token IDs owned by the requested address\n     */\n    function _tokensOfOwner(address owner) internal view returns (uint256[] storage) {\n        return _ownedTokens[owner];\n    }\n\n    /**\n     * @dev Private function to add a token to this extension's ownership-tracking data structures.\n     * @param to address representing the new owner of the given token ID\n     * @param tokenId uint256 ID of the token to be added to the tokens list of the given address\n     */\n    function _addTokenToOwnerEnumeration(address to, uint256 tokenId) private {\n        _ownedTokensIndex[tokenId] = _ownedTokens[to].length;\n        _ownedTokens[to].push(tokenId);\n    }\n\n    /**\n     * @dev Private function to add a token to this extension's token tracking data structures.\n     * @param tokenId uint256 ID of the token to be added to the tokens list\n     */\n    function _addTokenToAllTokensEnumeration(uint256 tokenId) private {\n        _allTokensIndex[tokenId] = _allTokens.length;\n        _allTokens.push(tokenId);\n    }\n\n    /**\n     * @dev Private function to remove a token from this extension's ownership-tracking data structures. Note that\n     * while the token is not assigned a new owner, the _ownedTokensIndex mapping is _not_ updated: this allows for\n     * gas optimizations e.g. when performing a transfer operation (avoiding double writes).\n     * This has O(1) time complexity, but alters the order of the _ownedTokens array.\n     * @param from address representing the previous owner of the given token ID\n     * @param tokenId uint256 ID of the token to be removed from the tokens list of the given address\n     */\n    function _removeTokenFromOwnerEnumeration(address from, uint256 tokenId) private {\n        // To prevent a gap in from's tokens array, we store the last token in the index of the token to delete, and\n        // then delete the last slot (swap and pop).\n\n        uint256 lastTokenIndex = _ownedTokens[from].length.sub(1);\n        uint256 tokenIndex = _ownedTokensIndex[tokenId];\n\n        // When the token to delete is the last token, the swap operation is unnecessary\n        if (tokenIndex != lastTokenIndex) {\n            uint256 lastTokenId = _ownedTokens[from][lastTokenIndex];\n\n            _ownedTokens[from][tokenIndex] = lastTokenId; // Move the last token to the slot of the to-delete token\n            _ownedTokensIndex[lastTokenId] = tokenIndex; // Update the moved token's index\n        }\n\n        // This also deletes the contents at the last position of the array\n        _ownedTokens[from].length--;\n\n        // Note that _ownedTokensIndex[tokenId] hasn't been cleared: it still points to the old slot (now occupied by\n        // lastTokenId, or just over the end of the array if the token was the last one).\n    }\n\n    /**\n     * @dev Private function to remove a token from this extension's token tracking data structures.\n     * This has O(1) time complexity, but alters the order of the _allTokens array.\n     * @param tokenId uint256 ID of the token to be removed from the tokens list\n     */\n    function _removeTokenFromAllTokensEnumeration(uint256 tokenId) private {\n        // To prevent a gap in the tokens array, we store the last token in the index of the token to delete, and\n        // then delete the last slot (swap and pop).\n\n        uint256 lastTokenIndex = _allTokens.length.sub(1);\n        uint256 tokenIndex = _allTokensIndex[tokenId];\n\n        // When the token to delete is the last token, the swap operation is unnecessary. However, since this occurs so\n        // rarely (when the last minted token is burnt) that we still do the swap here to avoid the gas cost of adding\n        // an 'if' statement (like in _removeTokenFromOwnerEnumeration)\n        uint256 lastTokenId = _allTokens[lastTokenIndex];\n\n        _allTokens[tokenIndex] = lastTokenId; // Move the last token to the slot of the to-delete token\n        _allTokensIndex[lastTokenId] = tokenIndex; // Update the moved token's index\n\n        // This also deletes the contents at the last position of the array\n        _allTokens.length--;\n        _allTokensIndex[tokenId] = 0;\n    }\n}\n\n// File: openzeppelin-solidity/contracts/access/Roles.sol\n\npragma solidity ^0.5.0;\n\n/**\n * @title Roles\n * @dev Library for managing addresses assigned to a Role.\n */\nlibrary Roles {\n    struct Role {\n        mapping (address => bool) bearer;\n    }\n\n    /**\n     * @dev Give an account access to this role.\n     */\n    function add(Role storage role, address account) internal {\n        require(!has(role, account), \"Roles: account already has role\");\n        role.bearer[account] = true;\n    }\n\n    /**\n     * @dev Remove an account's access to this role.\n     */\n    function remove(Role storage role, address account) internal {\n        require(has(role, account), \"Roles: account does not have role\");\n        role.bearer[account] = false;\n    }\n\n    /**\n     * @dev Check if an account has this role.\n     * @return bool\n     */\n    function has(Role storage role, address account) internal view returns (bool) {\n        require(account != address(0), \"Roles: account is the zero address\");\n        return role.bearer[account];\n    }\n}\n\n// File: openzeppelin-solidity/contracts/access/roles/WhitelistAdminRole.sol\n\npragma solidity ^0.5.0;\n\n\n/**\n * @title WhitelistAdminRole\n * @dev WhitelistAdmins are responsible for assigning and removing Whitelisted accounts.\n */\ncontract WhitelistAdminRole {\n    using Roles for Roles.Role;\n\n    event WhitelistAdminAdded(address indexed account);\n    event WhitelistAdminRemoved(address indexed account);\n\n    Roles.Role private _whitelistAdmins;\n\n    constructor () internal {\n        _addWhitelistAdmin(msg.sender);\n    }\n\n    modifier onlyWhitelistAdmin() {\n        require(isWhitelistAdmin(msg.sender), \"WhitelistAdminRole: caller does not have the WhitelistAdmin role\");\n        _;\n    }\n\n    function isWhitelistAdmin(address account) public view returns (bool) {\n        return _whitelistAdmins.has(account);\n    }\n\n    function addWhitelistAdmin(address account) public onlyWhitelistAdmin {\n        _addWhitelistAdmin(account);\n    }\n\n    function renounceWhitelistAdmin() public {\n        _removeWhitelistAdmin(msg.sender);\n    }\n\n    function _addWhitelistAdmin(address account) internal {\n        _whitelistAdmins.add(account);\n        emit WhitelistAdminAdded(account);\n    }\n\n    function _removeWhitelistAdmin(address account) internal {\n        _whitelistAdmins.remove(account);\n        emit WhitelistAdminRemoved(account);\n    }\n}\n\n// File: openzeppelin-solidity/contracts/access/roles/WhitelistedRole.sol\n\npragma solidity ^0.5.0;\n\n\n\n/**\n * @title WhitelistedRole\n * @dev Whitelisted accounts have been approved by a WhitelistAdmin to perform certain actions (e.g. participate in a\n * crowdsale). This role is special in that the only accounts that can add it are WhitelistAdmins (who can also remove\n * it), and not Whitelisteds themselves.\n */\ncontract WhitelistedRole is WhitelistAdminRole {\n    using Roles for Roles.Role;\n\n    event WhitelistedAdded(address indexed account);\n    event WhitelistedRemoved(address indexed account);\n\n    Roles.Role private _whitelisteds;\n\n    modifier onlyWhitelisted() {\n        require(isWhitelisted(msg.sender), \"WhitelistedRole: caller does not have the Whitelisted role\");\n        _;\n    }\n\n    function isWhitelisted(address account) public view returns (bool) {\n        return _whitelisteds.has(account);\n    }\n\n    function addWhitelisted(address account) public onlyWhitelistAdmin {\n        _addWhitelisted(account);\n    }\n\n    function removeWhitelisted(address account) public onlyWhitelistAdmin {\n        _removeWhitelisted(account);\n    }\n\n    function renounceWhitelisted() public {\n        _removeWhitelisted(msg.sender);\n    }\n\n    function _addWhitelisted(address account) internal {\n        _whitelisteds.add(account);\n        emit WhitelistedAdded(account);\n    }\n\n    function _removeWhitelisted(address account) internal {\n        _whitelisteds.remove(account);\n        emit WhitelistedRemoved(account);\n    }\n}\n\n// File: contracts/Strings.sol\n\npragma solidity ^0.5.0;\n\n//https://github.com/oraclize/ethereum-api/blob/master/oraclizeAPI_0.5.sol\nlibrary Strings {\n\n    function strConcat(string memory _a, string memory _b) internal pure returns (string memory _concatenatedString) {\n        return strConcat(_a, _b, \"\", \"\", \"\");\n    }\n\n    function strConcat(string memory _a, string memory _b, string memory _c) internal pure returns (string memory _concatenatedString) {\n        return strConcat(_a, _b, _c, \"\", \"\");\n    }\n\n    function strConcat(string memory _a, string memory _b, string memory _c, string memory _d) internal pure returns (string memory _concatenatedString) {\n        return strConcat(_a, _b, _c, _d, \"\");\n    }\n\n    function strConcat(string memory _a, string memory _b, string memory _c, string memory _d, string memory _e) internal pure returns (string memory _concatenatedString) {\n        bytes memory _ba = bytes(_a);\n        bytes memory _bb = bytes(_b);\n        bytes memory _bc = bytes(_c);\n        bytes memory _bd = bytes(_d);\n        bytes memory _be = bytes(_e);\n        string memory abcde = new string(_ba.length + _bb.length + _bc.length + _bd.length + _be.length);\n        bytes memory babcde = bytes(abcde);\n        uint k = 0;\n        uint i = 0;\n        for (i = 0; i < _ba.length; i++) {\n            babcde[k++] = _ba[i];\n        }\n        for (i = 0; i < _bb.length; i++) {\n            babcde[k++] = _bb[i];\n        }\n        for (i = 0; i < _bc.length; i++) {\n            babcde[k++] = _bc[i];\n        }\n        for (i = 0; i < _bd.length; i++) {\n            babcde[k++] = _bd[i];\n        }\n        for (i = 0; i < _be.length; i++) {\n            babcde[k++] = _be[i];\n        }\n        return string(babcde);\n    }\n\n    function uint2str(uint _i) internal pure returns (string memory _uintAsString) {\n        if (_i == 0) {\n            return \"0\";\n        }\n        uint j = _i;\n        uint len;\n        while (j != 0) {\n            len++;\n            j /= 10;\n        }\n        bytes memory bstr = new bytes(len);\n        uint k = len - 1;\n        while (_i != 0) {\n            bstr[k--] = byte(uint8(48 + _i % 10));\n            _i /= 10;\n        }\n        return string(bstr);\n    }\n}\n\n// File: contracts/CustomERC721Metadata.sol\n\npragma solidity ^0.5.0;\n\n\n\n/**\n * ERC721 base contract without the concept of tokenUri as this is managed by the parent\n */\n\ncontract CustomERC721Metadata is ERC165, ERC721, ERC721Enumerable {\n\n    // Token name\n    string private _name;\n\n    // Token symbol\n    string private _symbol;\n\n    bytes4 private constant _INTERFACE_ID_ERC721_METADATA = 0x5b5e139f;\n    /**\n     * 0x5b5e139f ===\n     *     bytes4(keccak256('name()')) ^\n     *     bytes4(keccak256('symbol()')) ^\n     *     bytes4(keccak256('tokenURI(uint256)'))\n     */\n\n    /**\n     * @dev Constructor function\n     */\n    constructor (string memory name, string memory symbol) public {\n        _name = name;\n        _symbol = symbol;\n\n        // register the supported interfaces to conform to ERC721 via ERC165\n        _registerInterface(_INTERFACE_ID_ERC721_METADATA);\n    }\n\n    /**\n     * @dev Gets the token name\n     * @return string representing the token name\n     */\n    function name() external view returns (string memory) {\n        return _name;\n    }\n\n    /**\n     * @dev Gets the token symbol\n     * @return string representing the token symbol\n     */\n    function symbol() external view returns (string memory) {\n        return _symbol;\n    }\n\n}\n\n\npragma solidity ^0.5.0;\n\ninterface PunkInterface {\n    \n    function punkIndexToAddress(uint256 _punkId) external view returns (address); \n}\n\n// File: contracts/PunkPrintRegistry.sol\n\npragma solidity ^0.5.0;\n\ncontract PunkPrintRegistry is CustomERC721Metadata, WhitelistedRole {\n    using SafeMath for uint256;\n\n    ///////////////\n    // Variables //\n    ///////////////\n   \n\n    PunkInterface public punkContract;\n    \n    string public tokenBaseURI;\n    string public tokenBaseIpfsURI = \"https://ipfs.infura.io/ipfs/\";\n\n    address payable public printerAddress;\n    uint256 public pricePerPrintInWei;\n    uint256 public pricePerNFCInWei;\n    uint256 public pricePerMiscInWei;\n    uint256 public pricePerPrintIntlShipInWei;\n    uint256 public pricePerNFCIntlShipInWei;\n    uint256 public pricePerMiscIntlShipInWei;\n    \n    string public descriptionMiscItem;\n    \n    uint256 public invocations = 0;\n\n    mapping(bytes32 => uint256) public serialToTokenId;\n    mapping(uint256 => bytes32) public tokenIdToSerial;\n    mapping(uint256 => uint256) public tokenIdToPunkId;\n    mapping(uint256 => string) public tokenIdToNFC;\n    mapping(uint256 => string) public tokenIdToContactMethod;\n    \n    mapping(uint256 => string) public staticIpfsImageLink;\n\n\n    ///////////////\n    // Modifiers //\n    ///////////////\n\n    modifier onlyValidTokenId(uint256 _tokenId) {\n        require(_exists(_tokenId), \"Token ID does not exist\");\n        _;\n    }\n\n    /////////////////\n    // Constructor //\n    /////////////////\n\n    constructor(address payable _printerAddress, uint256 _pricePerPrintInWei, uint256 _pricePerNFCInWei, uint256 _pricePerMiscInWei, uint256 _pricePerPrintIntlShipInWei, uint256 _pricePerNFCIntlShipInWei, uint256 _pricePerMiscIntlShipInWei, string memory _tokenBaseURI, string memory _tokenName, string memory _tokenSymbol) CustomERC721Metadata(_tokenName, _tokenSymbol) public {\n        super.addWhitelisted(msg.sender);\n        super.addWhitelisted(_printerAddress);\n\n        printerAddress = _printerAddress;\n\n        pricePerPrintInWei = _pricePerPrintInWei;\n        pricePerNFCInWei = _pricePerNFCInWei;\n        pricePerMiscInWei = _pricePerMiscInWei;\n        \n        pricePerPrintIntlShipInWei = _pricePerPrintIntlShipInWei;\n        pricePerNFCIntlShipInWei = _pricePerNFCIntlShipInWei;\n        pricePerMiscIntlShipInWei = _pricePerMiscIntlShipInWei;\n        \n\n        tokenBaseURI = _tokenBaseURI;\n        punkContract = PunkInterface(0xb47e3cd837dDF8e4c57F05d70Ab865de6e193BBB);\n        \n    }\n\n\n\n    //////////////////////////////\n    // Token Creation Functions //\n    //////////////////////////////\n\n  \n\n    function purchasePrint(uint256 _punkId, string memory _contactMethod) public payable returns (uint256 _tokenId) {\n        require(msg.value == pricePerPrintInWei || msg.value == pricePerPrintIntlShipInWei, \"Must send correct amount for a print. Please check price @ pricePerPrintInWei or pricePerPrintIntlShipInWei for international shipments.\");\n        require(msg.sender == punkContract.punkIndexToAddress(_punkId), \"You must own punk\");\n        \n        uint256 tokenId = _mintToken(msg.sender);\n        \n        tokenIdToPunkId[tokenId] = _punkId;\n        tokenIdToContactMethod[tokenId] = _contactMethod;\n        printerAddress.transfer(msg.value);\n        \n        return tokenId;\n    }\n    \n    \n    function purchaseNFCOnly(uint256 _punkId, string memory _contactMethod) public payable returns (uint256 _tokenId) {\n        require(msg.value == pricePerNFCInWei || msg.value == pricePerNFCIntlShipInWei, \"Must send correct amount for an NFC. Please check price @ pricePerNFCInWei or pricePerNFCIntlShipInWei for international shipments.\");\n        require(msg.sender == punkContract.punkIndexToAddress(_punkId), \"You must own punk\");\n        \n        uint256 tokenId = _mintToken(msg.sender);\n        \n        tokenIdToPunkId[tokenId] = _punkId;\n        tokenIdToContactMethod[tokenId] = _contactMethod;\n        printerAddress.transfer(msg.value);\n        \n        return tokenId;\n    }\n    \n    function purchaseMisc(uint256 _punkId, string memory _contactMethod) public payable returns (uint256 _tokenId) {\n        bytes memory tempDescriptionMiscItem = bytes(descriptionMiscItem); // Uses memory\n        require(msg.value == pricePerMiscInWei || msg.value == pricePerMiscIntlShipInWei, \"Must send correct amount. Please check price @ pricePerMiscInWei or pricePerMiscIntlShipInWei for international shipments.\");\n        require(tempDescriptionMiscItem.length > 0, \"Misc item not available.\");\n        require(msg.sender == punkContract.punkIndexToAddress(_punkId), \"You must own punk\");\n        \n        uint256 tokenId = _mintToken(msg.sender);\n        \n        tokenIdToPunkId[tokenId] = _punkId;\n        tokenIdToContactMethod[tokenId] = _contactMethod;\n        printerAddress.transfer(msg.value);\n        \n        return tokenId;\n    }\n    \n    function mint(uint256 _punkId, string memory _nfc) public onlyWhitelisted returns (uint256 _tokenId) {\n        uint256 tokenId = _mintToken(punkContract.punkIndexToAddress(_punkId));\n        tokenIdToPunkId[tokenId] = _punkId;\n        tokenIdToNFC[tokenId]= _nfc;\n\n        return tokenId;\n    }\n\n    function _mintToken(address _to) internal returns (uint256 _tokenId) {\n\n        invocations = invocations.add(1); // next token ID\n        bytes32 serial = keccak256(abi.encodePacked(invocations, block.number, msg.sender));\n\n        _mint(_to, invocations);\n\n        serialToTokenId[serial] = invocations;\n        tokenIdToSerial[invocations] = serial;\n\n        return invocations;\n    }\n\n  \n\n    //////////////////////////\n    // Management functions //\n    //////////////////////////\n\n    \n    function updatePrinterAddress(address payable _printerAddress) public onlyWhitelisted returns (bool) {\n        printerAddress = _printerAddress;\n        return true;\n    }\n    \n\n    function updatePricePerPrintInWei(uint256 _pricePerPrintInWei) public onlyWhitelisted returns (bool) {\n        pricePerPrintInWei = _pricePerPrintInWei;\n        return true;\n    }\n    \n    function updatePricePerNFCInWei(uint256 _pricePerNFCInWei) public onlyWhitelisted returns (bool) {\n        pricePerNFCInWei = _pricePerNFCInWei;\n        return true;\n    }\n    \n    function updatePricePerMiscInWei(uint256 _pricePerMiscInWei) public onlyWhitelisted returns (bool) {\n        pricePerMiscInWei = _pricePerMiscInWei;\n        return true;\n    }\n    \n    function updatePricePerPrintIntlShipInWei(uint256 _pricePerPrintIntlShipInWei) public onlyWhitelisted returns (bool) {\n        pricePerPrintIntlShipInWei = _pricePerPrintIntlShipInWei;\n        return true;\n    }\n    \n    function updatePricePerNFCIntlShipInWei(uint256 _pricePerNFCIntlShipInWei) public onlyWhitelisted returns (bool) {\n        pricePerNFCIntlShipInWei = _pricePerNFCIntlShipInWei;\n        return true;\n    }\n    \n    function updatePricePerMiscIntlShipInWei(uint256 _pricePerMiscIntlShipInWei) public onlyWhitelisted returns (bool) {\n        pricePerMiscIntlShipInWei = _pricePerMiscIntlShipInWei;\n        return true;\n    }\n    \n    function updateDescriptionMiscItem(string memory _descriptionMiscItem) public onlyWhitelisted returns (bool) {\n        descriptionMiscItem = _descriptionMiscItem;\n        return true;\n    }\n   \n    function updateTokenBaseURI(string memory _newBaseURI) public onlyWhitelisted returns (bool) {\n        tokenBaseURI = _newBaseURI;\n        return true;\n    }\n\n    function updateTokenBaseIpfsURI(string memory _tokenBaseIpfsURI) public onlyWhitelisted returns (bool) {\n        tokenBaseIpfsURI = _tokenBaseIpfsURI;\n        return true;\n    }\n\n    function overrideDynamicImageWithIpfsLink(uint256 _tokenId, string memory _ipfsHash) public onlyWhitelisted returns (bool) {\n        staticIpfsImageLink[_tokenId] = _ipfsHash;\n        return true;\n    }\n\n    function clearIpfsImageUri(uint256 _tokenId) public onlyWhitelisted returns (bool) {\n        delete staticIpfsImageLink[_tokenId];\n        return true;\n    }\n\n    ////////////////////////\n    // Accessor functions //\n    ////////////////////////\n\n    function updateTokenPunkId(uint256 _tokenId, uint256 _punkId) public onlyWhitelisted returns (bool) {\n        require(_exists(_tokenId), \"Token must exist\");\n\n        tokenIdToPunkId[_tokenId] = _punkId;\n        return true;\n    }\n    \n    function updateTokenContactMethod(uint256 _tokenId, string memory _contactMethod) public returns (bool) {\n        require(_exists(_tokenId), \"Token must exist\");\n        require(msg.sender == ownerOf(_tokenId) || isWhitelisted(msg.sender), \"You must have permission.\");\n        tokenIdToContactMethod[_tokenId] = _contactMethod;\n        return true;\n    }\n    \n    function updateTokenNFC(uint256 _tokenId, string memory _NFCUID) public onlyWhitelisted returns (bool) {\n        require(_exists(_tokenId), \"Token must exist\");\n        tokenIdToNFC[_tokenId] = _NFCUID;\n        return true;\n    }\n    \n\n    \n    function tokensOfOwner(address owner) external view returns (uint256[] memory) {\n        return _tokensOfOwner(owner);\n    }\n    \n\n    function tokenURI(uint256 _tokenId) external view onlyValidTokenId(_tokenId) returns (string memory) {\n        // If we have an override then use it\n        if (bytes(staticIpfsImageLink[_tokenId]).length > 0) {\n            return Strings.strConcat(tokenBaseIpfsURI, staticIpfsImageLink[_tokenId]);\n        }\n\n        return Strings.strConcat(tokenBaseURI, Strings.uint2str(_tokenId));\n    }\n}\n",
  "sourcePath": "/Users/Erick/Desktop/punkprintapp/contracts/PunkPrintRegistry.sol",
  "compiler": {
    "name": "solc",
    "version": "0.5.0+commit.1d4f565a.Emscripten.clang"
  },
  "schemaVersion": "3.0.22",
  "updatedAt": "2020-01-30T05:19:06.285Z",
  "networkType": "ethereum",
  "devdoc": {
    "methods": {
      "approve(address,uint256)": {
        "details": "Approves another address to transfer the given token ID The zero address indicates there is no approved address. There can only be one approved address per token at a given time. Can only be called by the token owner or an approved operator.",
        "params": {
          "to": "address to be approved for the given token ID",
          "tokenId": "uint256 ID of the token to be approved"
        }
      },
      "balanceOf(address)": {
        "details": "Gets the balance of the specified address.",
        "params": {
          "owner": "address to query the balance of"
        },
        "return": "uint256 representing the amount owned by the passed address"
      },
      "getApproved(uint256)": {
        "details": "Gets the approved address for a token ID, or zero if no address set Reverts if the token ID does not exist.",
        "params": {
          "tokenId": "uint256 ID of the token to query the approval of"
        },
        "return": "address currently approved for the given token ID"
      },
      "isApprovedForAll(address,address)": {
        "details": "Tells whether an operator is approved by a given owner.",
        "params": {
          "operator": "operator address which you want to query the approval of",
          "owner": "owner address which you want to query the approval of"
        },
        "return": "bool whether the given operator is approved by the given owner"
      },
      "name()": {
        "details": "Gets the token name",
        "return": "string representing the token name"
      },
      "ownerOf(uint256)": {
        "details": "Gets the owner of the specified token ID.",
        "params": {
          "tokenId": "uint256 ID of the token to query the owner of"
        },
        "return": "address currently marked as the owner of the given token ID"
      },
      "safeTransferFrom(address,address,uint256)": {
        "details": "Safely transfers the ownership of a given token ID to another address If the target address is a contract, it must implement `onERC721Received`, which is called upon a safe transfer, and return the magic value `bytes4(keccak256(\"onERC721Received(address,address,uint256,bytes)\"))`; otherwise, the transfer is reverted. Requires the msg.sender to be the owner, approved, or operator",
        "params": {
          "from": "current owner of the token",
          "to": "address to receive the ownership of the given token ID",
          "tokenId": "uint256 ID of the token to be transferred"
        }
      },
      "safeTransferFrom(address,address,uint256,bytes)": {
        "details": "Safely transfers the ownership of a given token ID to another address If the target address is a contract, it must implement `onERC721Received`, which is called upon a safe transfer, and return the magic value `bytes4(keccak256(\"onERC721Received(address,address,uint256,bytes)\"))`; otherwise, the transfer is reverted. Requires the msg.sender to be the owner, approved, or operator",
        "params": {
          "_data": "bytes data to send along with a safe transfer check",
          "from": "current owner of the token",
          "to": "address to receive the ownership of the given token ID",
          "tokenId": "uint256 ID of the token to be transferred"
        }
      },
      "setApprovalForAll(address,bool)": {
        "details": "Sets or unsets the approval of a given operator An operator is allowed to transfer all tokens of the sender on their behalf.",
        "params": {
          "approved": "representing the status of the approval to be set",
          "to": "operator address to set the approval"
        }
      },
      "supportsInterface(bytes4)": {
        "details": "See `IERC165.supportsInterface`.     * Time complexity O(1), guaranteed to always use less than 30 000 gas."
      },
      "symbol()": {
        "details": "Gets the token symbol",
        "return": "string representing the token symbol"
      },
      "tokenByIndex(uint256)": {
        "details": "Gets the token ID at a given index of all the tokens in this contract Reverts if the index is greater or equal to the total number of tokens.",
        "params": {
          "index": "uint256 representing the index to be accessed of the tokens list"
        },
        "return": "uint256 token ID at the given index of the tokens list"
      },
      "tokenOfOwnerByIndex(address,uint256)": {
        "details": "Gets the token ID at a given index of the tokens list of the requested owner.",
        "params": {
          "index": "uint256 representing the index to be accessed of the requested tokens list",
          "owner": "address owning the tokens list to be accessed"
        },
        "return": "uint256 token ID at the given index of the tokens list owned by the requested address"
      },
      "totalSupply()": {
        "details": "Gets the total amount of tokens stored by the contract.",
        "return": "uint256 representing the total amount of tokens"
      },
      "transferFrom(address,address,uint256)": {
        "details": "Transfers the ownership of a given token ID to another address. Usage of this method is discouraged, use `safeTransferFrom` whenever possible. Requires the msg.sender to be the owner, approved, or operator.",
        "params": {
          "from": "current owner of the token",
          "to": "address to receive the ownership of the given token ID",
          "tokenId": "uint256 ID of the token to be transferred"
        }
      }
    }
  },
  "userdoc": {
    "methods": {
      "constructor": "//////////////",
      "purchasePrint(uint256,string)": {
        "notice": "///////////////////////////"
      },
      "updatePrinterAddress(address)": {
        "notice": "///////////////////////"
      },
      "updateTokenPunkId(uint256,uint256)": {
        "notice": "/////////////////////"
      }
    }
  }
}